{
  "_format": "hh-sol-artifact-1",
  "contractName": "LoyaltyToken",
  "sourceName": "contracts/LoyaltyToken.sol",
  "abi": [
    {
      "inputs": [],
      "stateMutability": "nonpayable",
      "type": "constructor"
    },
    {
      "inputs": [
        {
          "internalType": "address",
          "name": "spender",
          "type": "address"
        },
        {
          "internalType": "uint256",
          "name": "allowance",
          "type": "uint256"
        },
        {
          "internalType": "uint256",
          "name": "needed",
          "type": "uint256"
        }
      ],
      "name": "ERC20InsufficientAllowance",
      "type": "error"
    },
    {
      "inputs": [
        {
          "internalType": "address",
          "name": "sender",
          "type": "address"
        },
        {
          "internalType": "uint256",
          "name": "balance",
          "type": "uint256"
        },
        {
          "internalType": "uint256",
          "name": "needed",
          "type": "uint256"
        }
      ],
      "name": "ERC20InsufficientBalance",
      "type": "error"
    },
    {
      "inputs": [
        {
          "internalType": "address",
          "name": "approver",
          "type": "address"
        }
      ],
      "name": "ERC20InvalidApprover",
      "type": "error"
    },
    {
      "inputs": [
        {
          "internalType": "address",
          "name": "receiver",
          "type": "address"
        }
      ],
      "name": "ERC20InvalidReceiver",
      "type": "error"
    },
    {
      "inputs": [
        {
          "internalType": "address",
          "name": "sender",
          "type": "address"
        }
      ],
      "name": "ERC20InvalidSender",
      "type": "error"
    },
    {
      "inputs": [
        {
          "internalType": "address",
          "name": "spender",
          "type": "address"
        }
      ],
      "name": "ERC20InvalidSpender",
      "type": "error"
    },
    {
      "inputs": [
        {
          "internalType": "address",
          "name": "owner",
          "type": "address"
        }
      ],
      "name": "OwnableInvalidOwner",
      "type": "error"
    },
    {
      "inputs": [
        {
          "internalType": "address",
          "name": "account",
          "type": "address"
        }
      ],
      "name": "OwnableUnauthorizedAccount",
      "type": "error"
    },
    {
      "anonymous": false,
      "inputs": [
        {
          "indexed": true,
          "internalType": "address",
          "name": "owner",
          "type": "address"
        },
        {
          "indexed": true,
          "internalType": "address",
          "name": "spender",
          "type": "address"
        },
        {
          "indexed": false,
          "internalType": "uint256",
          "name": "value",
          "type": "uint256"
        }
      ],
      "name": "Approval",
      "type": "event"
    },
    {
      "anonymous": false,
      "inputs": [
        {
          "indexed": true,
          "internalType": "uint256",
          "name": "couponId",
          "type": "uint256"
        },
        {
          "indexed": true,
          "internalType": "address",
          "name": "user",
          "type": "address"
        },
        {
          "indexed": false,
          "internalType": "uint256",
          "name": "discountPercent",
          "type": "uint256"
        },
        {
          "indexed": false,
          "internalType": "uint256",
          "name": "tokensBurned",
          "type": "uint256"
        }
      ],
      "name": "CouponCreated",
      "type": "event"
    },
    {
      "anonymous": false,
      "inputs": [
        {
          "indexed": true,
          "internalType": "uint256",
          "name": "couponId",
          "type": "uint256"
        },
        {
          "indexed": true,
          "internalType": "address",
          "name": "user",
          "type": "address"
        }
      ],
      "name": "CouponUsed",
      "type": "event"
    },
    {
      "anonymous": false,
      "inputs": [
        {
          "indexed": true,
          "internalType": "address",
          "name": "previousOwner",
          "type": "address"
        },
        {
          "indexed": true,
          "internalType": "address",
          "name": "newOwner",
          "type": "address"
        }
      ],
      "name": "OwnershipTransferred",
      "type": "event"
    },
    {
      "anonymous": false,
      "inputs": [
        {
          "indexed": true,
          "internalType": "address",
          "name": "user",
          "type": "address"
        },
        {
          "indexed": false,
          "internalType": "uint256",
          "name": "amount",
          "type": "uint256"
        }
      ],
      "name": "TokensRedeemed",
      "type": "event"
    },
    {
      "anonymous": false,
      "inputs": [
        {
          "indexed": true,
          "internalType": "address",
          "name": "from",
          "type": "address"
        },
        {
          "indexed": true,
          "internalType": "address",
          "name": "to",
          "type": "address"
        },
        {
          "indexed": false,
          "internalType": "uint256",
          "name": "value",
          "type": "uint256"
        }
      ],
      "name": "Transfer",
      "type": "event"
    },
    {
      "inputs": [
        {
          "internalType": "address",
          "name": "owner",
          "type": "address"
        },
        {
          "internalType": "address",
          "name": "spender",
          "type": "address"
        }
      ],
      "name": "allowance",
      "outputs": [
        {
          "internalType": "uint256",
          "name": "",
          "type": "uint256"
        }
      ],
      "stateMutability": "view",
      "type": "function"
    },
    {
      "inputs": [
        {
          "internalType": "address",
          "name": "spender",
          "type": "address"
        },
        {
          "internalType": "uint256",
          "name": "value",
          "type": "uint256"
        }
      ],
      "name": "approve",
      "outputs": [
        {
          "internalType": "bool",
          "name": "",
          "type": "bool"
        }
      ],
      "stateMutability": "nonpayable",
      "type": "function"
    },
    {
      "inputs": [
        {
          "internalType": "address",
          "name": "account",
          "type": "address"
        }
      ],
      "name": "balanceOf",
      "outputs": [
        {
          "internalType": "uint256",
          "name": "",
          "type": "uint256"
        }
      ],
      "stateMutability": "view",
      "type": "function"
    },
    {
      "inputs": [
        {
          "internalType": "uint256",
          "name": "",
          "type": "uint256"
        }
      ],
      "name": "coupons",
      "outputs": [
        {
          "internalType": "uint256",
          "name": "id",
          "type": "uint256"
        },
        {
          "internalType": "address",
          "name": "owner",
          "type": "address"
        },
        {
          "internalType": "uint256",
          "name": "discountPercent",
          "type": "uint256"
        },
        {
          "internalType": "uint256",
          "name": "tokensBurned",
          "type": "uint256"
        },
        {
          "internalType": "uint256",
          "name": "expiryTime",
          "type": "uint256"
        },
        {
          "internalType": "bool",
          "name": "isUsed",
          "type": "bool"
        },
        {
          "internalType": "string",
          "name": "businessType",
          "type": "string"
        }
      ],
      "stateMutability": "view",
      "type": "function"
    },
    {
      "inputs": [
        {
          "internalType": "uint256",
          "name": "tokenAmount",
          "type": "uint256"
        },
        {
          "internalType": "uint256",
          "name": "discountPercent",
          "type": "uint256"
        },
        {
          "internalType": "string",
          "name": "businessType",
          "type": "string"
        },
        {
          "internalType": "uint256",
          "name": "validityDays",
          "type": "uint256"
        }
      ],
      "name": "createCoupon",
      "outputs": [
        {
          "internalType": "uint256",
          "name": "couponId",
          "type": "uint256"
        }
      ],
      "stateMutability": "nonpayable",
      "type": "function"
    },
    {
      "inputs": [],
      "name": "decimals",
      "outputs": [
        {
          "internalType": "uint8",
          "name": "",
          "type": "uint8"
        }
      ],
      "stateMutability": "view",
      "type": "function"
    },
    {
      "inputs": [
        {
          "internalType": "address",
          "name": "customer",
          "type": "address"
        },
        {
          "internalType": "uint256",
          "name": "amountSpent",
          "type": "uint256"
        }
      ],
      "name": "earnTokens",
      "outputs": [],
      "stateMutability": "nonpayable",
      "type": "function"
    },
    {
      "inputs": [
        {
          "internalType": "uint256",
          "name": "amountSpent",
          "type": "uint256"
        }
      ],
      "name": "earnTokensForSelf",
      "outputs": [],
      "stateMutability": "nonpayable",
      "type": "function"
    },
    {
      "inputs": [],
      "name": "emissionRate",
      "outputs": [
        {
          "internalType": "uint256",
          "name": "",
          "type": "uint256"
        }
      ],
      "stateMutability": "view",
      "type": "function"
    },
    {
      "inputs": [
        {
          "internalType": "uint256",
          "name": "couponId",
          "type": "uint256"
        }
      ],
      "name": "getCouponDetails",
      "outputs": [
        {
          "components": [
            {
              "internalType": "uint256",
              "name": "id",
              "type": "uint256"
            },
            {
              "internalType": "address",
              "name": "owner",
              "type": "address"
            },
            {
              "internalType": "uint256",
              "name": "discountPercent",
              "type": "uint256"
            },
            {
              "internalType": "uint256",
              "name": "tokensBurned",
              "type": "uint256"
            },
            {
              "internalType": "uint256",
              "name": "expiryTime",
              "type": "uint256"
            },
            {
              "internalType": "bool",
              "name": "isUsed",
              "type": "bool"
            },
            {
              "internalType": "string",
              "name": "businessType",
              "type": "string"
            }
          ],
          "internalType": "struct LoyaltyToken.Coupon",
          "name": "",
          "type": "tuple"
        }
      ],
      "stateMutability": "view",
      "type": "function"
    },
    {
      "inputs": [],
      "name": "getTokenMetrics",
      "outputs": [
        {
          "internalType": "uint256",
          "name": "totalMintedTokens",
          "type": "uint256"
        },
        {
          "internalType": "uint256",
          "name": "totalBurnedTokens",
          "type": "uint256"
        },
        {
          "internalType": "uint256",
          "name": "currentSupply",
          "type": "uint256"
        }
      ],
      "stateMutability": "view",
      "type": "function"
    },
    {
      "inputs": [
        {
          "internalType": "address",
          "name": "user",
          "type": "address"
        }
      ],
      "name": "getUserCoupons",
      "outputs": [
        {
          "internalType": "uint256[]",
          "name": "",
          "type": "uint256[]"
        }
      ],
      "stateMutability": "view",
      "type": "function"
    },
    {
      "inputs": [
        {
          "internalType": "uint256",
          "name": "couponId",
          "type": "uint256"
        }
      ],
      "name": "isCouponValid",
      "outputs": [
        {
          "internalType": "bool",
          "name": "",
          "type": "bool"
        }
      ],
      "stateMutability": "view",
      "type": "function"
    },
    {
      "inputs": [],
      "name": "name",
      "outputs": [
        {
          "internalType": "string",
          "name": "",
          "type": "string"
        }
      ],
      "stateMutability": "view",
      "type": "function"
    },
    {
      "inputs": [],
      "name": "owner",
      "outputs": [
        {
          "internalType": "address",
          "name": "",
          "type": "address"
        }
      ],
      "stateMutability": "view",
      "type": "function"
    },
    {
      "inputs": [],
      "name": "renounceOwnership",
      "outputs": [],
      "stateMutability": "nonpayable",
      "type": "function"
    },
    {
      "inputs": [
        {
          "internalType": "uint256",
          "name": "_rate",
          "type": "uint256"
        }
      ],
      "name": "setEmissionRate",
      "outputs": [],
      "stateMutability": "nonpayable",
      "type": "function"
    },
    {
      "inputs": [
        {
          "internalType": "uint256",
          "name": "_unit",
          "type": "uint256"
        }
      ],
      "name": "setUnitValue",
      "outputs": [],
      "stateMutability": "nonpayable",
      "type": "function"
    },
    {
      "inputs": [],
      "name": "symbol",
      "outputs": [
        {
          "internalType": "string",
          "name": "",
          "type": "string"
        }
      ],
      "stateMutability": "view",
      "type": "function"
    },
    {
      "inputs": [],
      "name": "totalBurned",
      "outputs": [
        {
          "internalType": "uint256",
          "name": "",
          "type": "uint256"
        }
      ],
      "stateMutability": "view",
      "type": "function"
    },
    {
      "inputs": [],
      "name": "totalMinted",
      "outputs": [
        {
          "internalType": "uint256",
          "name": "",
          "type": "uint256"
        }
      ],
      "stateMutability": "view",
      "type": "function"
    },
    {
      "inputs": [],
      "name": "totalSupply",
      "outputs": [
        {
          "internalType": "uint256",
          "name": "",
          "type": "uint256"
        }
      ],
      "stateMutability": "view",
      "type": "function"
    },
    {
      "inputs": [
        {
          "internalType": "address",
          "name": "to",
          "type": "address"
        },
        {
          "internalType": "uint256",
          "name": "value",
          "type": "uint256"
        }
      ],
      "name": "transfer",
      "outputs": [
        {
          "internalType": "bool",
          "name": "",
          "type": "bool"
        }
      ],
      "stateMutability": "nonpayable",
      "type": "function"
    },
    {
      "inputs": [
        {
          "internalType": "address",
          "name": "from",
          "type": "address"
        },
        {
          "internalType": "address",
          "name": "to",
          "type": "address"
        },
        {
          "internalType": "uint256",
          "name": "value",
          "type": "uint256"
        }
      ],
      "name": "transferFrom",
      "outputs": [
        {
          "internalType": "bool",
          "name": "",
          "type": "bool"
        }
      ],
      "stateMutability": "nonpayable",
      "type": "function"
    },
    {
      "inputs": [
        {
          "internalType": "address",
          "name": "newOwner",
          "type": "address"
        }
      ],
      "name": "transferOwnership",
      "outputs": [],
      "stateMutability": "nonpayable",
      "type": "function"
    },
    {
      "inputs": [],
      "name": "unitValue",
      "outputs": [
        {
          "internalType": "uint256",
          "name": "",
          "type": "uint256"
        }
      ],
      "stateMutability": "view",
      "type": "function"
    },
    {
      "inputs": [
        {
          "internalType": "uint256",
          "name": "couponId",
          "type": "uint256"
        }
      ],
      "name": "useCoupon",
      "outputs": [],
      "stateMutability": "nonpayable",
      "type": "function"
    },
    {
      "inputs": [
        {
          "internalType": "address",
          "name": "",
          "type": "address"
        },
        {
          "internalType": "uint256",
          "name": "",
          "type": "uint256"
        }
      ],
      "name": "userCoupons",
      "outputs": [
        {
          "internalType": "uint256",
          "name": "",
          "type": "uint256"
        }
      ],
      "stateMutability": "view",
      "type": "function"
    }
  ],
  "bytecode": "0x6080604052600160065560036007556001600a5534801561001f57600080fd5b50336040518060400160405280600c81526020017f4c6f79616c7479546f6b656e00000000000000000000000000000000000000008152506040518060400160405280600581526020017f4c4f59414c000000000000000000000000000000000000000000000000000000815250816003908161009c9190610745565b5080600490816100ac9190610745565b505050600073ffffffffffffffffffffffffffffffffffffffff168173ffffffffffffffffffffffffffffffffffffffff16036101215760006040517f1e4fbdf70000000000000000000000000000000000000000000000000000000081526004016101189190610858565b60405180910390fd5b6101308161017960201b60201c565b50600061014161023f60201b60201c565b600a61014d91906109e2565b6103e861015a9190610a2d565b905061016c338261024860201b60201c565b8060088190555050610b04565b6000600560009054906101000a900473ffffffffffffffffffffffffffffffffffffffff16905081600560006101000a81548173ffffffffffffffffffffffffffffffffffffffff021916908373ffffffffffffffffffffffffffffffffffffffff1602179055508173ffffffffffffffffffffffffffffffffffffffff168173ffffffffffffffffffffffffffffffffffffffff167f8be0079c531659141344cd1fd0a4f28419497f9722a3daafe3b4186f6b6457e060405160405180910390a35050565b60006012905090565b600073ffffffffffffffffffffffffffffffffffffffff168273ffffffffffffffffffffffffffffffffffffffff16036102ba5760006040517fec442f050000000000000000000000000000000000000000000000000000000081526004016102b19190610858565b60405180910390fd5b6102cc600083836102d060201b60201c565b5050565b600073ffffffffffffffffffffffffffffffffffffffff168373ffffffffffffffffffffffffffffffffffffffff16036103225780600260008282546103169190610a6f565b925050819055506103f5565b60008060008573ffffffffffffffffffffffffffffffffffffffff1673ffffffffffffffffffffffffffffffffffffffff168152602001908152602001600020549050818110156103ae578381836040517fe450d38c0000000000000000000000000000000000000000000000000000000081526004016103a593929190610ab2565b60405180910390fd5b8181036000808673ffffffffffffffffffffffffffffffffffffffff1673ffffffffffffffffffffffffffffffffffffffff16815260200190815260200160002081905550505b600073ffffffffffffffffffffffffffffffffffffffff168273ffffffffffffffffffffffffffffffffffffffff160361043e578060026000828254039250508190555061048b565b806000808473ffffffffffffffffffffffffffffffffffffffff1673ffffffffffffffffffffffffffffffffffffffff168152602001908152602001600020600082825401925050819055505b8173ffffffffffffffffffffffffffffffffffffffff168373ffffffffffffffffffffffffffffffffffffffff167fddf252ad1be2c89b69c2b068fc378daa952ba7f163c4a11628f55a4df523b3ef836040516104e89190610ae9565b60405180910390a3505050565b600081519050919050565b7f4e487b7100000000000000000000000000000000000000000000000000000000600052604160045260246000fd5b7f4e487b7100000000000000000000000000000000000000000000000000000000600052602260045260246000fd5b6000600282049050600182168061057657607f821691505b6020821081036105895761058861052f565b5b50919050565b60008190508160005260206000209050919050565b60006020601f8301049050919050565b600082821b905092915050565b6000600883026105f17fffffffffffffffffffffffffffffffffffffffffffffffffffffffffffffffff826105b4565b6105fb86836105b4565b95508019841693508086168417925050509392505050565b6000819050919050565b6000819050919050565b600061064261063d61063884610613565b61061d565b610613565b9050919050565b6000819050919050565b61065c83610627565b61067061066882610649565b8484546105c1565b825550505050565b600090565b610685610678565b610690818484610653565b505050565b5b818110156106b4576106a960008261067d565b600181019050610696565b5050565b601f8211156106f9576106ca8161058f565b6106d3846105a4565b810160208510156106e2578190505b6106f66106ee856105a4565b830182610695565b50505b505050565b600082821c905092915050565b600061071c600019846008026106fe565b1980831691505092915050565b6000610735838361070b565b9150826002028217905092915050565b61074e826104f5565b67ffffffffffffffff81111561076757610766610500565b5b610771825461055e565b61077c8282856106b8565b600060209050601f8311600181146107af576000841561079d578287015190505b6107a78582610729565b86555061080f565b601f1984166107bd8661058f565b60005b828110156107e5578489015182556001820191506020850194506020810190506107c0565b8683101561080257848901516107fe601f89168261070b565b8355505b6001600288020188555050505b505050505050565b600073ffffffffffffffffffffffffffffffffffffffff82169050919050565b600061084282610817565b9050919050565b61085281610837565b82525050565b600060208201905061086d6000830184610849565b92915050565b7f4e487b7100000000000000000000000000000000000000000000000000000000600052601160045260246000fd5b60008160011c9050919050565b6000808291508390505b60018511156108f9578086048111156108d5576108d4610873565b5b60018516156108e45780820291505b80810290506108f2856108a2565b94506108b9565b94509492505050565b60008261091257600190506109ce565b8161092057600090506109ce565b816001811461093657600281146109405761096f565b60019150506109ce565b60ff84111561095257610951610873565b5b8360020a91508482111561096957610968610873565b5b506109ce565b5060208310610133831016604e8410600b84101617156109a45782820a90508381111561099f5761099e610873565b5b6109ce565b6109b184848460016108af565b925090508184048111156109c8576109c7610873565b5b81810290505b9392505050565b600060ff82169050919050565b60006109ed82610613565b91506109f8836109d5565b9250610a257fffffffffffffffffffffffffffffffffffffffffffffffffffffffffffffffff8484610902565b905092915050565b6000610a3882610613565b9150610a4383610613565b9250828202610a5181610613565b91508282048414831517610a6857610a67610873565b5b5092915050565b6000610a7a82610613565b9150610a8583610613565b9250828201905080821115610a9d57610a9c610873565b5b92915050565b610aac81610613565b82525050565b6000606082019050610ac76000830186610849565b610ad46020830185610aa3565b610ae16040830184610aa3565b949350505050565b6000602082019050610afe6000830184610aa3565b92915050565b61302280610b136000396000f3fe608060405234801561001057600080fd5b50600436106101c45760003560e01c80638317a6e0116100f9578063a9059cbb11610097578063dd62ed3e11610071578063dd62ed3e14610523578063e9eda19c14610553578063f0d673f314610583578063f2fde38b146105a3576101c4565b8063a9059cbb146104b7578063b7d0a907146104e7578063d89135cd14610505576101c4565b806395d89b41116100d357806395d89b411461044157806396afc4501461045f578063a1bdb15e1461047d578063a2309ff814610499576101c4565b80638317a6e0146103d75780638da5cb5b146103f35780638df61fcb14610411576101c4565b8063313ce567116101665780635d3dd232116101405780635d3dd2321461035157806370a0823114610381578063715018a6146103b15780637dab3269146103bb576101c4565b8063313ce567146102e75780634fc9a6e214610305578063562cb2c214610335576101c4565b8063207b11cc116101a2578063207b11cc1461023557806323b872dd14610251578063245d8f6d1461028157806330828e92146102b1576101c4565b806306fdde03146101c9578063095ea7b3146101e757806318160ddd14610217575b600080fd5b6101d16105bf565b6040516101de9190611df0565b60405180910390f35b61020160048036038101906101fc9190611eba565b610651565b60405161020e9190611f15565b60405180910390f35b61021f610674565b60405161022c9190611f3f565b60405180910390f35b61024f600480360381019061024a9190611f5a565b61067e565b005b61026b60048036038101906102669190611f87565b610690565b6040516102789190611f15565b60405180910390f35b61029b6004803603810190610296919061210f565b6106bf565b6040516102a89190611f3f565b60405180910390f35b6102cb60048036038101906102c69190611f5a565b610a73565b6040516102de97969594939291906121a1565b60405180910390f35b6102ef610b6a565b6040516102fc9190612233565b60405180910390f35b61031f600480360381019061031a9190611f5a565b610b73565b60405161032c9190611f15565b60405180910390f35b61034f600480360381019061034a9190611eba565b610d1c565b005b61036b60048036038101906103669190611f5a565b610d8f565b6040516103789190612361565b60405180910390f35b61039b60048036038101906103969190612383565b610ee7565b6040516103a89190611f3f565b60405180910390f35b6103b9610f2f565b005b6103d560048036038101906103d09190611f5a565b610f43565b005b6103f160048036038101906103ec9190611f5a565b6110ea565b005b6103fb61121f565b60405161040891906123b0565b60405180910390f35b61042b60048036038101906104269190612383565b611249565b604051610438919061247a565b60405180910390f35b6104496112e0565b6040516104569190611df0565b60405180910390f35b610467611372565b6040516104749190611f3f565b60405180910390f35b61049760048036038101906104929190611f5a565b611378565b005b6104a161138a565b6040516104ae9190611f3f565b60405180910390f35b6104d160048036038101906104cc9190611eba565b611390565b6040516104de9190611f15565b60405180910390f35b6104ef6113b3565b6040516104fc9190611f3f565b60405180910390f35b61050d6113b9565b60405161051a9190611f3f565b60405180910390f35b61053d6004803603810190610538919061249c565b6113bf565b60405161054a9190611f3f565b60405180910390f35b61056d60048036038101906105689190611eba565b611446565b60405161057a9190611f3f565b60405180910390f35b61058b611477565b60405161059a939291906124dc565b60405180910390f35b6105bd60048036038101906105b89190612383565b611495565b005b6060600380546105ce90612542565b80601f01602080910402602001604051908101604052809291908181526020018280546105fa90612542565b80156106475780601f1061061c57610100808354040283529160200191610647565b820191906000526020600020905b81548152906001019060200180831161062a57829003601f168201915b5050505050905090565b60008061065c61151b565b9050610669818585611523565b600191505092915050565b6000600254905090565b610686611535565b8060078190555050565b60008061069b61151b565b90506106a88582856115bc565b6106b3858585611651565b60019150509392505050565b6000808511610703576040517f08c379a00000000000000000000000000000000000000000000000000000000081526004016106fa906125e5565b60405180910390fd5b600084118015610714575060648411155b610753576040517f08c379a000000000000000000000000000000000000000000000000000000000815260040161074a90612651565b60405180910390fd5b600082118015610765575061016d8211155b6107a4576040517f08c379a000000000000000000000000000000000000000000000000000000000815260040161079b906126e3565b60405180910390fd5b846107ae33610ee7565b10156107ef576040517f08c379a00000000000000000000000000000000000000000000000000000000081526004016107e69061274f565b60405180910390fd5b6107f93386611745565b846009600082825461080b919061279e565b92505081905550600a6000815480929190610825906127d2565b9190505590506000603c8060188561083d919061281a565b610847919061281a565b610851919061281a565b4261085c919061279e565b90506040518060e001604052808381526020013373ffffffffffffffffffffffffffffffffffffffff16815260200186815260200187815260200182815260200160001515815260200185815250600b60008481526020019081526020016000206000820151816000015560208201518160010160006101000a81548173ffffffffffffffffffffffffffffffffffffffff021916908373ffffffffffffffffffffffffffffffffffffffff16021790555060408201518160020155606082015181600301556080820151816004015560a08201518160050160006101000a81548160ff02191690831515021790555060c08201518160060190816109619190612a08565b50905050600c60003373ffffffffffffffffffffffffffffffffffffffff1673ffffffffffffffffffffffffffffffffffffffff1681526020019081526020016000208290806001815401808255809150506001900390600052602060002001600090919091909150553373ffffffffffffffffffffffffffffffffffffffff167fcdd4c59de26b3f8623e6012ab9bc32a995eda3452d89c941fc8af6b74276ad3887604051610a119190611f3f565b60405180910390a23373ffffffffffffffffffffffffffffffffffffffff16827fe6a05fd2c700be8b083460c02d15d469f51bf66b4310e6ba12dda9bef83555618789604051610a62929190612ada565b60405180910390a350949350505050565b600b6020528060005260406000206000915090508060000154908060010160009054906101000a900473ffffffffffffffffffffffffffffffffffffffff16908060020154908060030154908060040154908060050160009054906101000a900460ff1690806006018054610ae790612542565b80601f0160208091040260200160405190810160405280929190818152602001828054610b1390612542565b8015610b605780601f10610b3557610100808354040283529160200191610b60565b820191906000526020600020905b815481529060010190602001808311610b4357829003601f168201915b5050505050905087565b60006012905090565b600080600b60008481526020019081526020016000206040518060e0016040529081600082015481526020016001820160009054906101000a900473ffffffffffffffffffffffffffffffffffffffff1673ffffffffffffffffffffffffffffffffffffffff1673ffffffffffffffffffffffffffffffffffffffff1681526020016002820154815260200160038201548152602001600482015481526020016005820160009054906101000a900460ff16151515158152602001600682018054610c3d90612542565b80601f0160208091040260200160405190810160405280929190818152602001828054610c6990612542565b8015610cb65780601f10610c8b57610100808354040283529160200191610cb6565b820191906000526020600020905b815481529060010190602001808311610c9957829003601f168201915b50505050508152505090508060a00151158015610cd7575080608001514211155b8015610d145750600073ffffffffffffffffffffffffffffffffffffffff16816020015173ffffffffffffffffffffffffffffffffffffffff1614155b915050919050565b610d24611535565b600060065460075483610d379190612b32565b610d41919061281a565b90506000610d4d610b6a565b600a610d599190612c96565b82610d64919061281a565b9050610d7084826117c7565b8060086000828254610d82919061279e565b9250508190555050505050565b610d97611d0b565b600b60008381526020019081526020016000206040518060e0016040529081600082015481526020016001820160009054906101000a900473ffffffffffffffffffffffffffffffffffffffff1673ffffffffffffffffffffffffffffffffffffffff1673ffffffffffffffffffffffffffffffffffffffff1681526020016002820154815260200160038201548152602001600482015481526020016005820160009054906101000a900460ff16151515158152602001600682018054610e5e90612542565b80601f0160208091040260200160405190810160405280929190818152602001828054610e8a90612542565b8015610ed75780601f10610eac57610100808354040283529160200191610ed7565b820191906000526020600020905b815481529060010190602001808311610eba57829003601f168201915b5050505050815250509050919050565b60008060008373ffffffffffffffffffffffffffffffffffffffff1673ffffffffffffffffffffffffffffffffffffffff168152602001908152602001600020549050919050565b610f37611535565b610f416000611849565b565b6000600b600083815260200190815260200160002090503373ffffffffffffffffffffffffffffffffffffffff168160010160009054906101000a900473ffffffffffffffffffffffffffffffffffffffff1673ffffffffffffffffffffffffffffffffffffffff1614610fec576040517f08c379a0000000000000000000000000000000000000000000000000000000008152600401610fe390612d2d565b60405180910390fd5b8060050160009054906101000a900460ff161561103e576040517f08c379a000000000000000000000000000000000000000000000000000000000815260040161103590612d99565b60405180910390fd5b8060040154421115611085576040517f08c379a000000000000000000000000000000000000000000000000000000000815260040161107c90612e05565b60405180910390fd5b60018160050160006101000a81548160ff0219169083151502179055503373ffffffffffffffffffffffffffffffffffffffff16827f81ac91c3f7b4f4411aa9fd6a07a12e37d36875b9ae8bd8a2a53e9dbbb906684060405160405180910390a35050565b6000811161112d576040517f08c379a000000000000000000000000000000000000000000000000000000000815260040161112490612e97565b60405180910390fd5b600754811015611172576040517f08c379a000000000000000000000000000000000000000000000000000000000815260040161116990612f29565b60405180910390fd5b6000600654600754836111859190612b32565b61118f919061281a565b9050600081116111d4576040517f08c379a00000000000000000000000000000000000000000000000000000000081526004016111cb90612f95565b60405180910390fd5b60006111de610b6a565b600a6111ea9190612c96565b826111f5919061281a565b905061120133826117c7565b8060086000828254611213919061279e565b92505081905550505050565b6000600560009054906101000a900473ffffffffffffffffffffffffffffffffffffffff16905090565b6060600c60008373ffffffffffffffffffffffffffffffffffffffff1673ffffffffffffffffffffffffffffffffffffffff1681526020019081526020016000208054806020026020016040519081016040528092919081815260200182805480156112d457602002820191906000526020600020905b8154815260200190600101908083116112c0575b50505050509050919050565b6060600480546112ef90612542565b80601f016020809104026020016040519081016040528092919081815260200182805461131b90612542565b80156113685780601f1061133d57610100808354040283529160200191611368565b820191906000526020600020905b81548152906001019060200180831161134b57829003601f168201915b5050505050905090565b60065481565b611380611535565b8060068190555050565b60085481565b60008061139b61151b565b90506113a8818585611651565b600191505092915050565b60075481565b60095481565b6000600160008473ffffffffffffffffffffffffffffffffffffffff1673ffffffffffffffffffffffffffffffffffffffff16815260200190815260200160002060008373ffffffffffffffffffffffffffffffffffffffff1673ffffffffffffffffffffffffffffffffffffffff16815260200190815260200160002054905092915050565b600c602052816000526040600020818154811061146257600080fd5b90600052602060002001600091509150505481565b600080600060085460095461148a610674565b925092509250909192565b61149d611535565b600073ffffffffffffffffffffffffffffffffffffffff168173ffffffffffffffffffffffffffffffffffffffff160361150f5760006040517f1e4fbdf700000000000000000000000000000000000000000000000000000000815260040161150691906123b0565b60405180910390fd5b61151881611849565b50565b600033905090565b611530838383600161190f565b505050565b61153d61151b565b73ffffffffffffffffffffffffffffffffffffffff1661155b61121f565b73ffffffffffffffffffffffffffffffffffffffff16146115ba5761157e61151b565b6040517f118cdaa70000000000000000000000000000000000000000000000000000000081526004016115b191906123b0565b60405180910390fd5b565b60006115c884846113bf565b90507fffffffffffffffffffffffffffffffffffffffffffffffffffffffffffffffff81101561164b578181101561163b578281836040517ffb8f41b200000000000000000000000000000000000000000000000000000000815260040161163293929190612fb5565b60405180910390fd5b61164a8484848403600061190f565b5b50505050565b600073ffffffffffffffffffffffffffffffffffffffff168373ffffffffffffffffffffffffffffffffffffffff16036116c35760006040517f96c6fd1e0000000000000000000000000000000000000000000000000000000081526004016116ba91906123b0565b60405180910390fd5b600073ffffffffffffffffffffffffffffffffffffffff168273ffffffffffffffffffffffffffffffffffffffff16036117355760006040517fec442f0500000000000000000000000000000000000000000000000000000000815260040161172c91906123b0565b60405180910390fd5b611740838383611ae6565b505050565b600073ffffffffffffffffffffffffffffffffffffffff168273ffffffffffffffffffffffffffffffffffffffff16036117b75760006040517f96c6fd1e0000000000000000000000000000000000000000000000000000000081526004016117ae91906123b0565b60405180910390fd5b6117c382600083611ae6565b5050565b600073ffffffffffffffffffffffffffffffffffffffff168273ffffffffffffffffffffffffffffffffffffffff16036118395760006040517fec442f0500000000000000000000000000000000000000000000000000000000815260040161183091906123b0565b60405180910390fd5b61184560008383611ae6565b5050565b6000600560009054906101000a900473ffffffffffffffffffffffffffffffffffffffff16905081600560006101000a81548173ffffffffffffffffffffffffffffffffffffffff021916908373ffffffffffffffffffffffffffffffffffffffff1602179055508173ffffffffffffffffffffffffffffffffffffffff168173ffffffffffffffffffffffffffffffffffffffff167f8be0079c531659141344cd1fd0a4f28419497f9722a3daafe3b4186f6b6457e060405160405180910390a35050565b600073ffffffffffffffffffffffffffffffffffffffff168473ffffffffffffffffffffffffffffffffffffffff16036119815760006040517fe602df0500000000000000000000000000000000000000000000000000000000815260040161197891906123b0565b60405180910390fd5b600073ffffffffffffffffffffffffffffffffffffffff168373ffffffffffffffffffffffffffffffffffffffff16036119f35760006040517f94280d620000000000000000000000000000000000000000000000000000000081526004016119ea91906123b0565b60405180910390fd5b81600160008673ffffffffffffffffffffffffffffffffffffffff1673ffffffffffffffffffffffffffffffffffffffff16815260200190815260200160002060008573ffffffffffffffffffffffffffffffffffffffff1673ffffffffffffffffffffffffffffffffffffffff168152602001908152602001600020819055508015611ae0578273ffffffffffffffffffffffffffffffffffffffff168473ffffffffffffffffffffffffffffffffffffffff167f8c5be1e5ebec7d5bd14f71427d1e84f3dd0314c0f7b2291e5b200ac8c7c3b92584604051611ad79190611f3f565b60405180910390a35b50505050565b600073ffffffffffffffffffffffffffffffffffffffff168373ffffffffffffffffffffffffffffffffffffffff1603611b38578060026000828254611b2c919061279e565b92505081905550611c0b565b60008060008573ffffffffffffffffffffffffffffffffffffffff1673ffffffffffffffffffffffffffffffffffffffff16815260200190815260200160002054905081811015611bc4578381836040517fe450d38c000000000000000000000000000000000000000000000000000000008152600401611bbb93929190612fb5565b60405180910390fd5b8181036000808673ffffffffffffffffffffffffffffffffffffffff1673ffffffffffffffffffffffffffffffffffffffff16815260200190815260200160002081905550505b600073ffffffffffffffffffffffffffffffffffffffff168273ffffffffffffffffffffffffffffffffffffffff1603611c545780600260008282540392505081905550611ca1565b806000808473ffffffffffffffffffffffffffffffffffffffff1673ffffffffffffffffffffffffffffffffffffffff168152602001908152602001600020600082825401925050819055505b8173ffffffffffffffffffffffffffffffffffffffff168373ffffffffffffffffffffffffffffffffffffffff167fddf252ad1be2c89b69c2b068fc378daa952ba7f163c4a11628f55a4df523b3ef83604051611cfe9190611f3f565b60405180910390a3505050565b6040518060e0016040528060008152602001600073ffffffffffffffffffffffffffffffffffffffff168152602001600081526020016000815260200160008152602001600015158152602001606081525090565b600081519050919050565b600082825260208201905092915050565b60005b83811015611d9a578082015181840152602081019050611d7f565b60008484015250505050565b6000601f19601f8301169050919050565b6000611dc282611d60565b611dcc8185611d6b565b9350611ddc818560208601611d7c565b611de581611da6565b840191505092915050565b60006020820190508181036000830152611e0a8184611db7565b905092915050565b6000604051905090565b600080fd5b600080fd5b600073ffffffffffffffffffffffffffffffffffffffff82169050919050565b6000611e5182611e26565b9050919050565b611e6181611e46565b8114611e6c57600080fd5b50565b600081359050611e7e81611e58565b92915050565b6000819050919050565b611e9781611e84565b8114611ea257600080fd5b50565b600081359050611eb481611e8e565b92915050565b60008060408385031215611ed157611ed0611e1c565b5b6000611edf85828601611e6f565b9250506020611ef085828601611ea5565b9150509250929050565b60008115159050919050565b611f0f81611efa565b82525050565b6000602082019050611f2a6000830184611f06565b92915050565b611f3981611e84565b82525050565b6000602082019050611f546000830184611f30565b92915050565b600060208284031215611f7057611f6f611e1c565b5b6000611f7e84828501611ea5565b91505092915050565b600080600060608486031215611fa057611f9f611e1c565b5b6000611fae86828701611e6f565b9350506020611fbf86828701611e6f565b9250506040611fd086828701611ea5565b9150509250925092565b600080fd5b600080fd5b7f4e487b7100000000000000000000000000000000000000000000000000000000600052604160045260246000fd5b61201c82611da6565b810181811067ffffffffffffffff8211171561203b5761203a611fe4565b5b80604052505050565b600061204e611e12565b905061205a8282612013565b919050565b600067ffffffffffffffff82111561207a57612079611fe4565b5b61208382611da6565b9050602081019050919050565b82818337600083830152505050565b60006120b26120ad8461205f565b612044565b9050828152602081018484840111156120ce576120cd611fdf565b5b6120d9848285612090565b509392505050565b600082601f8301126120f6576120f5611fda565b5b813561210684826020860161209f565b91505092915050565b6000806000806080858703121561212957612128611e1c565b5b600061213787828801611ea5565b945050602061214887828801611ea5565b935050604085013567ffffffffffffffff81111561216957612168611e21565b5b612175878288016120e1565b925050606061218687828801611ea5565b91505092959194509250565b61219b81611e46565b82525050565b600060e0820190506121b6600083018a611f30565b6121c36020830189612192565b6121d06040830188611f30565b6121dd6060830187611f30565b6121ea6080830186611f30565b6121f760a0830185611f06565b81810360c08301526122098184611db7565b905098975050505050505050565b600060ff82169050919050565b61222d81612217565b82525050565b60006020820190506122486000830184612224565b92915050565b61225781611e84565b82525050565b61226681611e46565b82525050565b61227581611efa565b82525050565b600082825260208201905092915050565b600061229782611d60565b6122a1818561227b565b93506122b1818560208601611d7c565b6122ba81611da6565b840191505092915050565b600060e0830160008301516122dd600086018261224e565b5060208301516122f0602086018261225d565b506040830151612303604086018261224e565b506060830151612316606086018261224e565b506080830151612329608086018261224e565b5060a083015161233c60a086018261226c565b5060c083015184820360c0860152612354828261228c565b9150508091505092915050565b6000602082019050818103600083015261237b81846122c5565b905092915050565b60006020828403121561239957612398611e1c565b5b60006123a784828501611e6f565b91505092915050565b60006020820190506123c56000830184612192565b92915050565b600081519050919050565b600082825260208201905092915050565b6000819050602082019050919050565b6000612403838361224e565b60208301905092915050565b6000602082019050919050565b6000612427826123cb565b61243181856123d6565b935061243c836123e7565b8060005b8381101561246d57815161245488826123f7565b975061245f8361240f565b925050600181019050612440565b5085935050505092915050565b60006020820190508181036000830152612494818461241c565b905092915050565b600080604083850312156124b3576124b2611e1c565b5b60006124c185828601611e6f565b92505060206124d285828601611e6f565b9150509250929050565b60006060820190506124f16000830186611f30565b6124fe6020830185611f30565b61250b6040830184611f30565b949350505050565b7f4e487b7100000000000000000000000000000000000000000000000000000000600052602260045260246000fd5b6000600282049050600182168061255a57607f821691505b60208210810361256d5761256c612513565b5b50919050565b7f546f6b656e20616d6f756e74206d75737420626520677265617465722074686160008201527f6e20300000000000000000000000000000000000000000000000000000000000602082015250565b60006125cf602383611d6b565b91506125da82612573565b604082019050919050565b600060208201905081810360008301526125fe816125c2565b9050919050565b7f446973636f756e74206d757374206265206265747765656e20312d3130302500600082015250565b600061263b601f83611d6b565b915061264682612605565b602082019050919050565b6000602082019050818103600083015261266a8161262e565b9050919050565b7f56616c6964697479206d757374206265206265747765656e20312d333635206460008201527f6179730000000000000000000000000000000000000000000000000000000000602082015250565b60006126cd602383611d6b565b91506126d882612671565b604082019050919050565b600060208201905081810360008301526126fc816126c0565b9050919050565b7f496e73756666696369656e7420746f6b656e2062616c616e6365000000000000600082015250565b6000612739601a83611d6b565b915061274482612703565b602082019050919050565b600060208201905081810360008301526127688161272c565b9050919050565b7f4e487b7100000000000000000000000000000000000000000000000000000000600052601160045260246000fd5b60006127a982611e84565b91506127b483611e84565b92508282019050808211156127cc576127cb61276f565b5b92915050565b60006127dd82611e84565b91507fffffffffffffffffffffffffffffffffffffffffffffffffffffffffffffffff820361280f5761280e61276f565b5b600182019050919050565b600061282582611e84565b915061283083611e84565b925082820261283e81611e84565b915082820484148315176128555761285461276f565b5b5092915050565b60008190508160005260206000209050919050565b60006020601f8301049050919050565b600082821b905092915050565b6000600883026128be7fffffffffffffffffffffffffffffffffffffffffffffffffffffffffffffffff82612881565b6128c88683612881565b95508019841693508086168417925050509392505050565b6000819050919050565b60006129056129006128fb84611e84565b6128e0565b611e84565b9050919050565b6000819050919050565b61291f836128ea565b61293361292b8261290c565b84845461288e565b825550505050565b600090565b61294861293b565b612953818484612916565b505050565b5b818110156129775761296c600082612940565b600181019050612959565b5050565b601f8211156129bc5761298d8161285c565b61299684612871565b810160208510156129a5578190505b6129b96129b185612871565b830182612958565b50505b505050565b600082821c905092915050565b60006129df600019846008026129c1565b1980831691505092915050565b60006129f883836129ce565b9150826002028217905092915050565b612a1182611d60565b67ffffffffffffffff811115612a2a57612a29611fe4565b5b612a348254612542565b612a3f82828561297b565b600060209050601f831160018114612a725760008415612a60578287015190505b612a6a85826129ec565b865550612ad2565b601f198416612a808661285c565b60005b82811015612aa857848901518255600182019150602085019450602081019050612a83565b86831015612ac55784890151612ac1601f8916826129ce565b8355505b6001600288020188555050505b505050505050565b6000604082019050612aef6000830185611f30565b612afc6020830184611f30565b9392505050565b7f4e487b7100000000000000000000000000000000000000000000000000000000600052601260045260246000fd5b6000612b3d82611e84565b9150612b4883611e84565b925082612b5857612b57612b03565b5b828204905092915050565b60008160011c9050919050565b6000808291508390505b6001851115612bba57808604811115612b9657612b9561276f565b5b6001851615612ba55780820291505b8081029050612bb385612b63565b9450612b7a565b94509492505050565b600082612bd35760019050612c8f565b81612be15760009050612c8f565b8160018114612bf75760028114612c0157612c30565b6001915050612c8f565b60ff841115612c1357612c1261276f565b5b8360020a915084821115612c2a57612c2961276f565b5b50612c8f565b5060208310610133831016604e8410600b8410161715612c655782820a905083811115612c6057612c5f61276f565b5b612c8f565b612c728484846001612b70565b92509050818404811115612c8957612c8861276f565b5b81810290505b9392505050565b6000612ca182611e84565b9150612cac83612217565b9250612cd97fffffffffffffffffffffffffffffffffffffffffffffffffffffffffffffffff8484612bc3565b905092915050565b7f4e6f7420636f75706f6e206f776e657200000000000000000000000000000000600082015250565b6000612d17601083611d6b565b9150612d2282612ce1565b602082019050919050565b60006020820190508181036000830152612d4681612d0a565b9050919050565b7f436f75706f6e20616c7265616479207573656400000000000000000000000000600082015250565b6000612d83601383611d6b565b9150612d8e82612d4d565b602082019050919050565b60006020820190508181036000830152612db281612d76565b9050919050565b7f436f75706f6e2065787069726564000000000000000000000000000000000000600082015250565b6000612def600e83611d6b565b9150612dfa82612db9565b602082019050919050565b60006020820190508181036000830152612e1e81612de2565b9050919050565b7f416d6f756e74207370656e74206d75737420626520677265617465722074686160008201527f6e20300000000000000000000000000000000000000000000000000000000000602082015250565b6000612e81602383611d6b565b9150612e8c82612e25565b604082019050919050565b60006020820190508181036000830152612eb081612e74565b9050919050565b7f416d6f756e74207370656e74206d757374206265206174206c6561737420756e60008201527f697456616c756520746f206561726e20746f6b656e7300000000000000000000602082015250565b6000612f13603683611d6b565b9150612f1e82612eb7565b604082019050919050565b60006020820190508181036000830152612f4281612f06565b9050919050565b7f4e6f20746f6b656e7320746f206d696e74000000000000000000000000000000600082015250565b6000612f7f601183611d6b565b9150612f8a82612f49565b602082019050919050565b60006020820190508181036000830152612fae81612f72565b9050919050565b6000606082019050612fca6000830186612192565b612fd76020830185611f30565b612fe46040830184611f30565b94935050505056fea2646970667358221220e7937768abbbc268a94bfb8b5ff84126aa463d356c37ce4b7e57d9e5744e387d64736f6c634300081c0033",
  "linkReferences": {},
  "deployedLinkReferences": {}
}