{
  "_format": "hh-sol-artifact-1",
  "contractName": "LoyaltyToken",
  "sourceName": "contracts/LoyaltyToken.sol",
  "abi": [
    {
      "inputs": [],
      "stateMutability": "nonpayable",
      "type": "constructor"
    },
    {
      "inputs": [
        {
          "internalType": "address",
          "name": "spender",
          "type": "address"
        },
        {
          "internalType": "uint256",
          "name": "allowance",
          "type": "uint256"
        },
        {
          "internalType": "uint256",
          "name": "needed",
          "type": "uint256"
        }
      ],
      "name": "ERC20InsufficientAllowance",
      "type": "error"
    },
    {
      "inputs": [
        {
          "internalType": "address",
          "name": "sender",
          "type": "address"
        },
        {
          "internalType": "uint256",
          "name": "balance",
          "type": "uint256"
        },
        {
          "internalType": "uint256",
          "name": "needed",
          "type": "uint256"
        }
      ],
      "name": "ERC20InsufficientBalance",
      "type": "error"
    },
    {
      "inputs": [
        {
          "internalType": "address",
          "name": "approver",
          "type": "address"
        }
      ],
      "name": "ERC20InvalidApprover",
      "type": "error"
    },
    {
      "inputs": [
        {
          "internalType": "address",
          "name": "receiver",
          "type": "address"
        }
      ],
      "name": "ERC20InvalidReceiver",
      "type": "error"
    },
    {
      "inputs": [
        {
          "internalType": "address",
          "name": "sender",
          "type": "address"
        }
      ],
      "name": "ERC20InvalidSender",
      "type": "error"
    },
    {
      "inputs": [
        {
          "internalType": "address",
          "name": "spender",
          "type": "address"
        }
      ],
      "name": "ERC20InvalidSpender",
      "type": "error"
    },
    {
      "inputs": [
        {
          "internalType": "address",
          "name": "owner",
          "type": "address"
        }
      ],
      "name": "OwnableInvalidOwner",
      "type": "error"
    },
    {
      "inputs": [
        {
          "internalType": "address",
          "name": "account",
          "type": "address"
        }
      ],
      "name": "OwnableUnauthorizedAccount",
      "type": "error"
    },
    {
      "anonymous": false,
      "inputs": [
        {
          "indexed": true,
          "internalType": "address",
          "name": "owner",
          "type": "address"
        },
        {
          "indexed": true,
          "internalType": "address",
          "name": "spender",
          "type": "address"
        },
        {
          "indexed": false,
          "internalType": "uint256",
          "name": "value",
          "type": "uint256"
        }
      ],
      "name": "Approval",
      "type": "event"
    },
    {
      "anonymous": false,
      "inputs": [
        {
          "indexed": true,
          "internalType": "uint256",
          "name": "couponId",
          "type": "uint256"
        },
        {
          "indexed": true,
          "internalType": "address",
          "name": "user",
          "type": "address"
        },
        {
          "indexed": false,
          "internalType": "uint256",
          "name": "discountPercent",
          "type": "uint256"
        },
        {
          "indexed": false,
          "internalType": "uint256",
          "name": "tokensBurned",
          "type": "uint256"
        }
      ],
      "name": "CouponCreated",
      "type": "event"
    },
    {
      "anonymous": false,
      "inputs": [
        {
          "indexed": true,
          "internalType": "address",
          "name": "user",
          "type": "address"
        },
        {
          "indexed": false,
          "internalType": "uint256",
          "name": "feeAmount",
          "type": "uint256"
        }
      ],
      "name": "CouponFeeCharged",
      "type": "event"
    },
    {
      "anonymous": false,
      "inputs": [
        {
          "indexed": true,
          "internalType": "uint256",
          "name": "couponId",
          "type": "uint256"
        },
        {
          "indexed": true,
          "internalType": "address",
          "name": "user",
          "type": "address"
        }
      ],
      "name": "CouponUsed",
      "type": "event"
    },
    {
      "anonymous": false,
      "inputs": [
        {
          "indexed": true,
          "internalType": "address",
          "name": "previousOwner",
          "type": "address"
        },
        {
          "indexed": true,
          "internalType": "address",
          "name": "newOwner",
          "type": "address"
        }
      ],
      "name": "OwnershipTransferred",
      "type": "event"
    },
    {
      "anonymous": false,
      "inputs": [
        {
          "indexed": true,
          "internalType": "address",
          "name": "user",
          "type": "address"
        },
        {
          "indexed": false,
          "internalType": "uint256",
          "name": "amount",
          "type": "uint256"
        }
      ],
      "name": "TokensRedeemed",
      "type": "event"
    },
    {
      "anonymous": false,
      "inputs": [
        {
          "indexed": true,
          "internalType": "address",
          "name": "from",
          "type": "address"
        },
        {
          "indexed": true,
          "internalType": "address",
          "name": "to",
          "type": "address"
        },
        {
          "indexed": false,
          "internalType": "uint256",
          "name": "value",
          "type": "uint256"
        }
      ],
      "name": "Transfer",
      "type": "event"
    },
    {
      "inputs": [
        {
          "internalType": "address",
          "name": "owner",
          "type": "address"
        },
        {
          "internalType": "address",
          "name": "spender",
          "type": "address"
        }
      ],
      "name": "allowance",
      "outputs": [
        {
          "internalType": "uint256",
          "name": "",
          "type": "uint256"
        }
      ],
      "stateMutability": "view",
      "type": "function"
    },
    {
      "inputs": [
        {
          "internalType": "address",
          "name": "spender",
          "type": "address"
        },
        {
          "internalType": "uint256",
          "name": "value",
          "type": "uint256"
        }
      ],
      "name": "approve",
      "outputs": [
        {
          "internalType": "bool",
          "name": "",
          "type": "bool"
        }
      ],
      "stateMutability": "nonpayable",
      "type": "function"
    },
    {
      "inputs": [
        {
          "internalType": "address",
          "name": "account",
          "type": "address"
        }
      ],
      "name": "balanceOf",
      "outputs": [
        {
          "internalType": "uint256",
          "name": "",
          "type": "uint256"
        }
      ],
      "stateMutability": "view",
      "type": "function"
    },
    {
      "inputs": [],
      "name": "couponFee",
      "outputs": [
        {
          "internalType": "uint256",
          "name": "",
          "type": "uint256"
        }
      ],
      "stateMutability": "view",
      "type": "function"
    },
    {
      "inputs": [
        {
          "internalType": "uint256",
          "name": "",
          "type": "uint256"
        }
      ],
      "name": "coupons",
      "outputs": [
        {
          "internalType": "uint256",
          "name": "id",
          "type": "uint256"
        },
        {
          "internalType": "address",
          "name": "owner",
          "type": "address"
        },
        {
          "internalType": "uint256",
          "name": "discountPercent",
          "type": "uint256"
        },
        {
          "internalType": "uint256",
          "name": "tokensBurned",
          "type": "uint256"
        },
        {
          "internalType": "uint256",
          "name": "expiryTime",
          "type": "uint256"
        },
        {
          "internalType": "bool",
          "name": "isUsed",
          "type": "bool"
        },
        {
          "internalType": "string",
          "name": "businessType",
          "type": "string"
        }
      ],
      "stateMutability": "view",
      "type": "function"
    },
    {
      "inputs": [
        {
          "internalType": "uint256",
          "name": "tokenAmount",
          "type": "uint256"
        },
        {
          "internalType": "uint256",
          "name": "discountPercent",
          "type": "uint256"
        },
        {
          "internalType": "string",
          "name": "businessType",
          "type": "string"
        },
        {
          "internalType": "uint256",
          "name": "validityDays",
          "type": "uint256"
        }
      ],
      "name": "createCoupon",
      "outputs": [
        {
          "internalType": "uint256",
          "name": "couponId",
          "type": "uint256"
        }
      ],
      "stateMutability": "nonpayable",
      "type": "function"
    },
    {
      "inputs": [],
      "name": "decimals",
      "outputs": [
        {
          "internalType": "uint8",
          "name": "",
          "type": "uint8"
        }
      ],
      "stateMutability": "view",
      "type": "function"
    },
    {
      "inputs": [
        {
          "internalType": "address",
          "name": "customer",
          "type": "address"
        },
        {
          "internalType": "uint256",
          "name": "amountSpent",
          "type": "uint256"
        }
      ],
      "name": "earnTokens",
      "outputs": [],
      "stateMutability": "nonpayable",
      "type": "function"
    },
    {
      "inputs": [
        {
          "internalType": "uint256",
          "name": "amountSpent",
          "type": "uint256"
        }
      ],
      "name": "earnTokensForSelf",
      "outputs": [],
      "stateMutability": "nonpayable",
      "type": "function"
    },
    {
      "inputs": [],
      "name": "emissionRate",
      "outputs": [
        {
          "internalType": "uint256",
          "name": "",
          "type": "uint256"
        }
      ],
      "stateMutability": "view",
      "type": "function"
    },
    {
      "inputs": [
        {
          "internalType": "uint256",
          "name": "couponId",
          "type": "uint256"
        }
      ],
      "name": "getCouponDetails",
      "outputs": [
        {
          "components": [
            {
              "internalType": "uint256",
              "name": "id",
              "type": "uint256"
            },
            {
              "internalType": "address",
              "name": "owner",
              "type": "address"
            },
            {
              "internalType": "uint256",
              "name": "discountPercent",
              "type": "uint256"
            },
            {
              "internalType": "uint256",
              "name": "tokensBurned",
              "type": "uint256"
            },
            {
              "internalType": "uint256",
              "name": "expiryTime",
              "type": "uint256"
            },
            {
              "internalType": "bool",
              "name": "isUsed",
              "type": "bool"
            },
            {
              "internalType": "string",
              "name": "businessType",
              "type": "string"
            }
          ],
          "internalType": "struct LoyaltyToken.Coupon",
          "name": "",
          "type": "tuple"
        }
      ],
      "stateMutability": "view",
      "type": "function"
    },
    {
      "inputs": [],
      "name": "getTokenMetrics",
      "outputs": [
        {
          "internalType": "uint256",
          "name": "totalMintedTokens",
          "type": "uint256"
        },
        {
          "internalType": "uint256",
          "name": "totalBurnedTokens",
          "type": "uint256"
        },
        {
          "internalType": "uint256",
          "name": "currentSupply",
          "type": "uint256"
        }
      ],
      "stateMutability": "view",
      "type": "function"
    },
    {
      "inputs": [
        {
          "internalType": "address",
          "name": "user",
          "type": "address"
        }
      ],
      "name": "getUserCoupons",
      "outputs": [
        {
          "internalType": "uint256[]",
          "name": "",
          "type": "uint256[]"
        }
      ],
      "stateMutability": "view",
      "type": "function"
    },
    {
      "inputs": [
        {
          "internalType": "uint256",
          "name": "couponId",
          "type": "uint256"
        }
      ],
      "name": "isCouponValid",
      "outputs": [
        {
          "internalType": "bool",
          "name": "",
          "type": "bool"
        }
      ],
      "stateMutability": "view",
      "type": "function"
    },
    {
      "inputs": [],
      "name": "name",
      "outputs": [
        {
          "internalType": "string",
          "name": "",
          "type": "string"
        }
      ],
      "stateMutability": "view",
      "type": "function"
    },
    {
      "inputs": [],
      "name": "owner",
      "outputs": [
        {
          "internalType": "address",
          "name": "",
          "type": "address"
        }
      ],
      "stateMutability": "view",
      "type": "function"
    },
    {
      "inputs": [],
      "name": "renounceOwnership",
      "outputs": [],
      "stateMutability": "nonpayable",
      "type": "function"
    },
    {
      "inputs": [
        {
          "internalType": "uint256",
          "name": "_fee",
          "type": "uint256"
        }
      ],
      "name": "setCouponFee",
      "outputs": [],
      "stateMutability": "nonpayable",
      "type": "function"
    },
    {
      "inputs": [
        {
          "internalType": "uint256",
          "name": "_rate",
          "type": "uint256"
        }
      ],
      "name": "setEmissionRate",
      "outputs": [],
      "stateMutability": "nonpayable",
      "type": "function"
    },
    {
      "inputs": [
        {
          "internalType": "uint256",
          "name": "_unit",
          "type": "uint256"
        }
      ],
      "name": "setUnitValue",
      "outputs": [],
      "stateMutability": "nonpayable",
      "type": "function"
    },
    {
      "inputs": [],
      "name": "symbol",
      "outputs": [
        {
          "internalType": "string",
          "name": "",
          "type": "string"
        }
      ],
      "stateMutability": "view",
      "type": "function"
    },
    {
      "inputs": [],
      "name": "totalBurned",
      "outputs": [
        {
          "internalType": "uint256",
          "name": "",
          "type": "uint256"
        }
      ],
      "stateMutability": "view",
      "type": "function"
    },
    {
      "inputs": [],
      "name": "totalMinted",
      "outputs": [
        {
          "internalType": "uint256",
          "name": "",
          "type": "uint256"
        }
      ],
      "stateMutability": "view",
      "type": "function"
    },
    {
      "inputs": [],
      "name": "totalSupply",
      "outputs": [
        {
          "internalType": "uint256",
          "name": "",
          "type": "uint256"
        }
      ],
      "stateMutability": "view",
      "type": "function"
    },
    {
      "inputs": [
        {
          "internalType": "address",
          "name": "to",
          "type": "address"
        },
        {
          "internalType": "uint256",
          "name": "value",
          "type": "uint256"
        }
      ],
      "name": "transfer",
      "outputs": [
        {
          "internalType": "bool",
          "name": "",
          "type": "bool"
        }
      ],
      "stateMutability": "nonpayable",
      "type": "function"
    },
    {
      "inputs": [
        {
          "internalType": "address",
          "name": "from",
          "type": "address"
        },
        {
          "internalType": "address",
          "name": "to",
          "type": "address"
        },
        {
          "internalType": "uint256",
          "name": "value",
          "type": "uint256"
        }
      ],
      "name": "transferFrom",
      "outputs": [
        {
          "internalType": "bool",
          "name": "",
          "type": "bool"
        }
      ],
      "stateMutability": "nonpayable",
      "type": "function"
    },
    {
      "inputs": [
        {
          "internalType": "address",
          "name": "newOwner",
          "type": "address"
        }
      ],
      "name": "transferOwnership",
      "outputs": [],
      "stateMutability": "nonpayable",
      "type": "function"
    },
    {
      "inputs": [],
      "name": "unitValue",
      "outputs": [
        {
          "internalType": "uint256",
          "name": "",
          "type": "uint256"
        }
      ],
      "stateMutability": "view",
      "type": "function"
    },
    {
      "inputs": [
        {
          "internalType": "uint256",
          "name": "couponId",
          "type": "uint256"
        }
      ],
      "name": "useCoupon",
      "outputs": [],
      "stateMutability": "nonpayable",
      "type": "function"
    },
    {
      "inputs": [
        {
          "internalType": "address",
          "name": "",
          "type": "address"
        },
        {
          "internalType": "uint256",
          "name": "",
          "type": "uint256"
        }
      ],
      "name": "userCoupons",
      "outputs": [
        {
          "internalType": "uint256",
          "name": "",
          "type": "uint256"
        }
      ],
      "stateMutability": "view",
      "type": "function"
    }
  ],
  "bytecode": "0x6080604052600160065560036007556064600a556001600b5534801561002457600080fd5b50336040518060400160405280600c81526020017f4c6f79616c7479546f6b656e00000000000000000000000000000000000000008152506040518060400160405280600581526020017f4c4f59414c00000000000000000000000000000000000000000000000000000081525081600390816100a1919061074a565b5080600490816100b1919061074a565b505050600073ffffffffffffffffffffffffffffffffffffffff168173ffffffffffffffffffffffffffffffffffffffff16036101265760006040517f1e4fbdf700000000000000000000000000000000000000000000000000000000815260040161011d919061085d565b60405180910390fd5b6101358161017e60201b60201c565b50600061014661024460201b60201c565b600a61015291906109e7565b6103e861015f9190610a32565b9050610171338261024d60201b60201c565b8060088190555050610b09565b6000600560009054906101000a900473ffffffffffffffffffffffffffffffffffffffff16905081600560006101000a81548173ffffffffffffffffffffffffffffffffffffffff021916908373ffffffffffffffffffffffffffffffffffffffff1602179055508173ffffffffffffffffffffffffffffffffffffffff168173ffffffffffffffffffffffffffffffffffffffff167f8be0079c531659141344cd1fd0a4f28419497f9722a3daafe3b4186f6b6457e060405160405180910390a35050565b60006012905090565b600073ffffffffffffffffffffffffffffffffffffffff168273ffffffffffffffffffffffffffffffffffffffff16036102bf5760006040517fec442f050000000000000000000000000000000000000000000000000000000081526004016102b6919061085d565b60405180910390fd5b6102d1600083836102d560201b60201c565b5050565b600073ffffffffffffffffffffffffffffffffffffffff168373ffffffffffffffffffffffffffffffffffffffff160361032757806002600082825461031b9190610a74565b925050819055506103fa565b60008060008573ffffffffffffffffffffffffffffffffffffffff1673ffffffffffffffffffffffffffffffffffffffff168152602001908152602001600020549050818110156103b3578381836040517fe450d38c0000000000000000000000000000000000000000000000000000000081526004016103aa93929190610ab7565b60405180910390fd5b8181036000808673ffffffffffffffffffffffffffffffffffffffff1673ffffffffffffffffffffffffffffffffffffffff16815260200190815260200160002081905550505b600073ffffffffffffffffffffffffffffffffffffffff168273ffffffffffffffffffffffffffffffffffffffff16036104435780600260008282540392505081905550610490565b806000808473ffffffffffffffffffffffffffffffffffffffff1673ffffffffffffffffffffffffffffffffffffffff168152602001908152602001600020600082825401925050819055505b8173ffffffffffffffffffffffffffffffffffffffff168373ffffffffffffffffffffffffffffffffffffffff167fddf252ad1be2c89b69c2b068fc378daa952ba7f163c4a11628f55a4df523b3ef836040516104ed9190610aee565b60405180910390a3505050565b600081519050919050565b7f4e487b7100000000000000000000000000000000000000000000000000000000600052604160045260246000fd5b7f4e487b7100000000000000000000000000000000000000000000000000000000600052602260045260246000fd5b6000600282049050600182168061057b57607f821691505b60208210810361058e5761058d610534565b5b50919050565b60008190508160005260206000209050919050565b60006020601f8301049050919050565b600082821b905092915050565b6000600883026105f67fffffffffffffffffffffffffffffffffffffffffffffffffffffffffffffffff826105b9565b61060086836105b9565b95508019841693508086168417925050509392505050565b6000819050919050565b6000819050919050565b600061064761064261063d84610618565b610622565b610618565b9050919050565b6000819050919050565b6106618361062c565b61067561066d8261064e565b8484546105c6565b825550505050565b600090565b61068a61067d565b610695818484610658565b505050565b5b818110156106b9576106ae600082610682565b60018101905061069b565b5050565b601f8211156106fe576106cf81610594565b6106d8846105a9565b810160208510156106e7578190505b6106fb6106f3856105a9565b83018261069a565b50505b505050565b600082821c905092915050565b600061072160001984600802610703565b1980831691505092915050565b600061073a8383610710565b9150826002028217905092915050565b610753826104fa565b67ffffffffffffffff81111561076c5761076b610505565b5b6107768254610563565b6107818282856106bd565b600060209050601f8311600181146107b457600084156107a2578287015190505b6107ac858261072e565b865550610814565b601f1984166107c286610594565b60005b828110156107ea578489015182556001820191506020850194506020810190506107c5565b868310156108075784890151610803601f891682610710565b8355505b6001600288020188555050505b505050505050565b600073ffffffffffffffffffffffffffffffffffffffff82169050919050565b60006108478261081c565b9050919050565b6108578161083c565b82525050565b6000602082019050610872600083018461084e565b92915050565b7f4e487b7100000000000000000000000000000000000000000000000000000000600052601160045260246000fd5b60008160011c9050919050565b6000808291508390505b60018511156108fe578086048111156108da576108d9610878565b5b60018516156108e95780820291505b80810290506108f7856108a7565b94506108be565b94509492505050565b60008261091757600190506109d3565b8161092557600090506109d3565b816001811461093b576002811461094557610974565b60019150506109d3565b60ff84111561095757610956610878565b5b8360020a91508482111561096e5761096d610878565b5b506109d3565b5060208310610133831016604e8410600b84101617156109a95782820a9050838111156109a4576109a3610878565b5b6109d3565b6109b684848460016108b4565b925090508184048111156109cd576109cc610878565b5b81810290505b9392505050565b600060ff82169050919050565b60006109f282610618565b91506109fd836109da565b9250610a2a7fffffffffffffffffffffffffffffffffffffffffffffffffffffffffffffffff8484610907565b905092915050565b6000610a3d82610618565b9150610a4883610618565b9250828202610a5681610618565b91508282048414831517610a6d57610a6c610878565b5b5092915050565b6000610a7f82610618565b9150610a8a83610618565b9250828201905080821115610aa257610aa1610878565b5b92915050565b610ab181610618565b82525050565b6000606082019050610acc600083018661084e565b610ad96020830185610aa8565b610ae66040830184610aa8565b949350505050565b6000602082019050610b036000830184610aa8565b92915050565b61320e80610b186000396000f3fe608060405234801561001057600080fd5b50600436106101da5760003560e01c80638317a6e011610104578063a9059cbb116100a2578063e9eda19c11610071578063e9eda19c14610587578063f0d673f3146105b7578063f2fde38b146105d7578063fcdac2f0146105f3576101da565b8063a9059cbb146104eb578063b7d0a9071461051b578063d89135cd14610539578063dd62ed3e14610557576101da565b806395d89b41116100de57806395d89b411461047557806396afc45014610493578063a1bdb15e146104b1578063a2309ff8146104cd576101da565b80638317a6e01461040b5780638da5cb5b146104275780638df61fcb14610445576101da565b8063313ce5671161017c57806370a082311161014b57806370a0823114610397578063715018a6146103c75780637dab3269146103d15780638226fb2a146103ed576101da565b8063313ce567146102fd5780634fc9a6e21461031b578063562cb2c21461034b5780635d3dd23214610367576101da565b8063207b11cc116101b8578063207b11cc1461024b57806323b872dd14610267578063245d8f6d1461029757806330828e92146102c7576101da565b806306fdde03146101df578063095ea7b3146101fd57806318160ddd1461022d575b600080fd5b6101e761060f565b6040516101f49190611f4a565b60405180910390f35b61021760048036038101906102129190612014565b6106a1565b604051610224919061206f565b60405180910390f35b6102356106c4565b6040516102429190612099565b60405180910390f35b610265600480360381019061026091906120b4565b6106ce565b005b610281600480360381019061027c91906120e1565b6106e0565b60405161028e919061206f565b60405180910390f35b6102b160048036038101906102ac9190612269565b61070f565b6040516102be9190612099565b60405180910390f35b6102e160048036038101906102dc91906120b4565b610b70565b6040516102f497969594939291906122fb565b60405180910390f35b610305610c67565b604051610312919061238d565b60405180910390f35b610335600480360381019061033091906120b4565b610c70565b604051610342919061206f565b60405180910390f35b61036560048036038101906103609190612014565b610e19565b005b610381600480360381019061037c91906120b4565b610e8c565b60405161038e91906124bb565b60405180910390f35b6103b160048036038101906103ac91906124dd565b610fe4565b6040516103be9190612099565b60405180910390f35b6103cf61102c565b005b6103eb60048036038101906103e691906120b4565b611040565b005b6103f56111e7565b6040516104029190612099565b60405180910390f35b610425600480360381019061042091906120b4565b6111ed565b005b61042f611322565b60405161043c919061250a565b60405180910390f35b61045f600480360381019061045a91906124dd565b61134c565b60405161046c91906125d4565b60405180910390f35b61047d6113e3565b60405161048a9190611f4a565b60405180910390f35b61049b611475565b6040516104a89190612099565b60405180910390f35b6104cb60048036038101906104c691906120b4565b61147b565b005b6104d561148d565b6040516104e29190612099565b60405180910390f35b61050560048036038101906105009190612014565b611493565b604051610512919061206f565b60405180910390f35b6105236114b6565b6040516105309190612099565b60405180910390f35b6105416114bc565b60405161054e9190612099565b60405180910390f35b610571600480360381019061056c91906125f6565b6114c2565b60405161057e9190612099565b60405180910390f35b6105a1600480360381019061059c9190612014565b611549565b6040516105ae9190612099565b60405180910390f35b6105bf61157a565b6040516105ce93929190612636565b60405180910390f35b6105f160048036038101906105ec91906124dd565b611598565b005b61060d600480360381019061060891906120b4565b61161e565b005b60606003805461061e9061269c565b80601f016020809104026020016040519081016040528092919081815260200182805461064a9061269c565b80156106975780601f1061066c57610100808354040283529160200191610697565b820191906000526020600020905b81548152906001019060200180831161067a57829003601f168201915b5050505050905090565b6000806106ac611675565b90506106b981858561167d565b600191505092915050565b6000600254905090565b6106d661168f565b8060078190555050565b6000806106eb611675565b90506106f8858285611716565b6107038585856117ab565b60019150509392505050565b6000808511610753576040517f08c379a000000000000000000000000000000000000000000000000000000000815260040161074a9061273f565b60405180910390fd5b600084118015610764575060648411155b6107a3576040517f08c379a000000000000000000000000000000000000000000000000000000000815260040161079a906127ab565b60405180910390fd5b6000821180156107b5575061016d8211155b6107f4576040517f08c379a00000000000000000000000000000000000000000000000000000000081526004016107eb9061283d565b60405180910390fd5b6000612710600a5487610807919061288c565b61081191906128fd565b905060008114801561082557506000600a54115b1561082f57600190505b6000818761083d919061292e565b90508061084933610fe4565b101561088a576040517f08c379a0000000000000000000000000000000000000000000000000000000008152600401610881906129d4565b60405180910390fd5b610894338861189f565b86600960008282546108a6919061292e565b925050819055506108bf336108b9611322565b846117ab565b600b60008154809291906108d2906129f4565b9190505592506000603c806018876108ea919061288c565b6108f4919061288c565b6108fe919061288c565b42610909919061292e565b90506040518060e001604052808581526020013373ffffffffffffffffffffffffffffffffffffffff16815260200188815260200189815260200182815260200160001515815260200187815250600c60008681526020019081526020016000206000820151816000015560208201518160010160006101000a81548173ffffffffffffffffffffffffffffffffffffffff021916908373ffffffffffffffffffffffffffffffffffffffff16021790555060408201518160020155606082015181600301556080820151816004015560a08201518160050160006101000a81548160ff02191690831515021790555060c0820151816006019081610a0e9190612be8565b50905050600d60003373ffffffffffffffffffffffffffffffffffffffff1673ffffffffffffffffffffffffffffffffffffffff1681526020019081526020016000208490806001815401808255809150506001900390600052602060002001600090919091909150553373ffffffffffffffffffffffffffffffffffffffff167fcdd4c59de26b3f8623e6012ab9bc32a995eda3452d89c941fc8af6b74276ad3889604051610abe9190612099565b60405180910390a23373ffffffffffffffffffffffffffffffffffffffff16847fe6a05fd2c700be8b083460c02d15d469f51bf66b4310e6ba12dda9bef8355561898b604051610b0f929190612cba565b60405180910390a33373ffffffffffffffffffffffffffffffffffffffff167f18bfa444d0d110a5ef24b3df2fff1b6c84d9d2b908e8bf94a19b3f3b903134a384604051610b5d9190612099565b60405180910390a2505050949350505050565b600c6020528060005260406000206000915090508060000154908060010160009054906101000a900473ffffffffffffffffffffffffffffffffffffffff16908060020154908060030154908060040154908060050160009054906101000a900460ff1690806006018054610be49061269c565b80601f0160208091040260200160405190810160405280929190818152602001828054610c109061269c565b8015610c5d5780601f10610c3257610100808354040283529160200191610c5d565b820191906000526020600020905b815481529060010190602001808311610c4057829003601f168201915b5050505050905087565b60006012905090565b600080600c60008481526020019081526020016000206040518060e0016040529081600082015481526020016001820160009054906101000a900473ffffffffffffffffffffffffffffffffffffffff1673ffffffffffffffffffffffffffffffffffffffff1673ffffffffffffffffffffffffffffffffffffffff1681526020016002820154815260200160038201548152602001600482015481526020016005820160009054906101000a900460ff16151515158152602001600682018054610d3a9061269c565b80601f0160208091040260200160405190810160405280929190818152602001828054610d669061269c565b8015610db35780601f10610d8857610100808354040283529160200191610db3565b820191906000526020600020905b815481529060010190602001808311610d9657829003601f168201915b50505050508152505090508060a00151158015610dd4575080608001514211155b8015610e115750600073ffffffffffffffffffffffffffffffffffffffff16816020015173ffffffffffffffffffffffffffffffffffffffff1614155b915050919050565b610e2161168f565b600060065460075483610e3491906128fd565b610e3e919061288c565b90506000610e4a610c67565b600a610e569190612e16565b82610e61919061288c565b9050610e6d8482611921565b8060086000828254610e7f919061292e565b9250508190555050505050565b610e94611e65565b600c60008381526020019081526020016000206040518060e0016040529081600082015481526020016001820160009054906101000a900473ffffffffffffffffffffffffffffffffffffffff1673ffffffffffffffffffffffffffffffffffffffff1673ffffffffffffffffffffffffffffffffffffffff1681526020016002820154815260200160038201548152602001600482015481526020016005820160009054906101000a900460ff16151515158152602001600682018054610f5b9061269c565b80601f0160208091040260200160405190810160405280929190818152602001828054610f879061269c565b8015610fd45780601f10610fa957610100808354040283529160200191610fd4565b820191906000526020600020905b815481529060010190602001808311610fb757829003601f168201915b5050505050815250509050919050565b60008060008373ffffffffffffffffffffffffffffffffffffffff1673ffffffffffffffffffffffffffffffffffffffff168152602001908152602001600020549050919050565b61103461168f565b61103e60006119a3565b565b6000600c600083815260200190815260200160002090503373ffffffffffffffffffffffffffffffffffffffff168160010160009054906101000a900473ffffffffffffffffffffffffffffffffffffffff1673ffffffffffffffffffffffffffffffffffffffff16146110e9576040517f08c379a00000000000000000000000000000000000000000000000000000000081526004016110e090612ead565b60405180910390fd5b8060050160009054906101000a900460ff161561113b576040517f08c379a000000000000000000000000000000000000000000000000000000000815260040161113290612f19565b60405180910390fd5b8060040154421115611182576040517f08c379a000000000000000000000000000000000000000000000000000000000815260040161117990612f85565b60405180910390fd5b60018160050160006101000a81548160ff0219169083151502179055503373ffffffffffffffffffffffffffffffffffffffff16827f81ac91c3f7b4f4411aa9fd6a07a12e37d36875b9ae8bd8a2a53e9dbbb906684060405160405180910390a35050565b600a5481565b60008111611230576040517f08c379a000000000000000000000000000000000000000000000000000000000815260040161122790613017565b60405180910390fd5b600754811015611275576040517f08c379a000000000000000000000000000000000000000000000000000000000815260040161126c906130a9565b60405180910390fd5b60006006546007548361128891906128fd565b611292919061288c565b9050600081116112d7576040517f08c379a00000000000000000000000000000000000000000000000000000000081526004016112ce90613115565b60405180910390fd5b60006112e1610c67565b600a6112ed9190612e16565b826112f8919061288c565b90506113043382611921565b8060086000828254611316919061292e565b92505081905550505050565b6000600560009054906101000a900473ffffffffffffffffffffffffffffffffffffffff16905090565b6060600d60008373ffffffffffffffffffffffffffffffffffffffff1673ffffffffffffffffffffffffffffffffffffffff1681526020019081526020016000208054806020026020016040519081016040528092919081815260200182805480156113d757602002820191906000526020600020905b8154815260200190600101908083116113c3575b50505050509050919050565b6060600480546113f29061269c565b80601f016020809104026020016040519081016040528092919081815260200182805461141e9061269c565b801561146b5780601f106114405761010080835404028352916020019161146b565b820191906000526020600020905b81548152906001019060200180831161144e57829003601f168201915b5050505050905090565b60065481565b61148361168f565b8060068190555050565b60085481565b60008061149e611675565b90506114ab8185856117ab565b600191505092915050565b60075481565b60095481565b6000600160008473ffffffffffffffffffffffffffffffffffffffff1673ffffffffffffffffffffffffffffffffffffffff16815260200190815260200160002060008373ffffffffffffffffffffffffffffffffffffffff1673ffffffffffffffffffffffffffffffffffffffff16815260200190815260200160002054905092915050565b600d602052816000526040600020818154811061156557600080fd5b90600052602060002001600091509150505481565b600080600060085460095461158d6106c4565b925092509250909192565b6115a061168f565b600073ffffffffffffffffffffffffffffffffffffffff168173ffffffffffffffffffffffffffffffffffffffff16036116125760006040517f1e4fbdf7000000000000000000000000000000000000000000000000000000008152600401611609919061250a565b60405180910390fd5b61161b816119a3565b50565b61162661168f565b6103e881111561166b576040517f08c379a000000000000000000000000000000000000000000000000000000000815260040161166290613181565b60405180910390fd5b80600a8190555050565b600033905090565b61168a8383836001611a69565b505050565b611697611675565b73ffffffffffffffffffffffffffffffffffffffff166116b5611322565b73ffffffffffffffffffffffffffffffffffffffff1614611714576116d8611675565b6040517f118cdaa700000000000000000000000000000000000000000000000000000000815260040161170b919061250a565b60405180910390fd5b565b600061172284846114c2565b90507fffffffffffffffffffffffffffffffffffffffffffffffffffffffffffffffff8110156117a55781811015611795578281836040517ffb8f41b200000000000000000000000000000000000000000000000000000000815260040161178c939291906131a1565b60405180910390fd5b6117a484848484036000611a69565b5b50505050565b600073ffffffffffffffffffffffffffffffffffffffff168373ffffffffffffffffffffffffffffffffffffffff160361181d5760006040517f96c6fd1e000000000000000000000000000000000000000000000000000000008152600401611814919061250a565b60405180910390fd5b600073ffffffffffffffffffffffffffffffffffffffff168273ffffffffffffffffffffffffffffffffffffffff160361188f5760006040517fec442f05000000000000000000000000000000000000000000000000000000008152600401611886919061250a565b60405180910390fd5b61189a838383611c40565b505050565b600073ffffffffffffffffffffffffffffffffffffffff168273ffffffffffffffffffffffffffffffffffffffff16036119115760006040517f96c6fd1e000000000000000000000000000000000000000000000000000000008152600401611908919061250a565b60405180910390fd5b61191d82600083611c40565b5050565b600073ffffffffffffffffffffffffffffffffffffffff168273ffffffffffffffffffffffffffffffffffffffff16036119935760006040517fec442f0500000000000000000000000000000000000000000000000000000000815260040161198a919061250a565b60405180910390fd5b61199f60008383611c40565b5050565b6000600560009054906101000a900473ffffffffffffffffffffffffffffffffffffffff16905081600560006101000a81548173ffffffffffffffffffffffffffffffffffffffff021916908373ffffffffffffffffffffffffffffffffffffffff1602179055508173ffffffffffffffffffffffffffffffffffffffff168173ffffffffffffffffffffffffffffffffffffffff167f8be0079c531659141344cd1fd0a4f28419497f9722a3daafe3b4186f6b6457e060405160405180910390a35050565b600073ffffffffffffffffffffffffffffffffffffffff168473ffffffffffffffffffffffffffffffffffffffff1603611adb5760006040517fe602df05000000000000000000000000000000000000000000000000000000008152600401611ad2919061250a565b60405180910390fd5b600073ffffffffffffffffffffffffffffffffffffffff168373ffffffffffffffffffffffffffffffffffffffff1603611b4d5760006040517f94280d62000000000000000000000000000000000000000000000000000000008152600401611b44919061250a565b60405180910390fd5b81600160008673ffffffffffffffffffffffffffffffffffffffff1673ffffffffffffffffffffffffffffffffffffffff16815260200190815260200160002060008573ffffffffffffffffffffffffffffffffffffffff1673ffffffffffffffffffffffffffffffffffffffff168152602001908152602001600020819055508015611c3a578273ffffffffffffffffffffffffffffffffffffffff168473ffffffffffffffffffffffffffffffffffffffff167f8c5be1e5ebec7d5bd14f71427d1e84f3dd0314c0f7b2291e5b200ac8c7c3b92584604051611c319190612099565b60405180910390a35b50505050565b600073ffffffffffffffffffffffffffffffffffffffff168373ffffffffffffffffffffffffffffffffffffffff1603611c92578060026000828254611c86919061292e565b92505081905550611d65565b60008060008573ffffffffffffffffffffffffffffffffffffffff1673ffffffffffffffffffffffffffffffffffffffff16815260200190815260200160002054905081811015611d1e578381836040517fe450d38c000000000000000000000000000000000000000000000000000000008152600401611d15939291906131a1565b60405180910390fd5b8181036000808673ffffffffffffffffffffffffffffffffffffffff1673ffffffffffffffffffffffffffffffffffffffff16815260200190815260200160002081905550505b600073ffffffffffffffffffffffffffffffffffffffff168273ffffffffffffffffffffffffffffffffffffffff1603611dae5780600260008282540392505081905550611dfb565b806000808473ffffffffffffffffffffffffffffffffffffffff1673ffffffffffffffffffffffffffffffffffffffff168152602001908152602001600020600082825401925050819055505b8173ffffffffffffffffffffffffffffffffffffffff168373ffffffffffffffffffffffffffffffffffffffff167fddf252ad1be2c89b69c2b068fc378daa952ba7f163c4a11628f55a4df523b3ef83604051611e589190612099565b60405180910390a3505050565b6040518060e0016040528060008152602001600073ffffffffffffffffffffffffffffffffffffffff168152602001600081526020016000815260200160008152602001600015158152602001606081525090565b600081519050919050565b600082825260208201905092915050565b60005b83811015611ef4578082015181840152602081019050611ed9565b60008484015250505050565b6000601f19601f8301169050919050565b6000611f1c82611eba565b611f268185611ec5565b9350611f36818560208601611ed6565b611f3f81611f00565b840191505092915050565b60006020820190508181036000830152611f648184611f11565b905092915050565b6000604051905090565b600080fd5b600080fd5b600073ffffffffffffffffffffffffffffffffffffffff82169050919050565b6000611fab82611f80565b9050919050565b611fbb81611fa0565b8114611fc657600080fd5b50565b600081359050611fd881611fb2565b92915050565b6000819050919050565b611ff181611fde565b8114611ffc57600080fd5b50565b60008135905061200e81611fe8565b92915050565b6000806040838503121561202b5761202a611f76565b5b600061203985828601611fc9565b925050602061204a85828601611fff565b9150509250929050565b60008115159050919050565b61206981612054565b82525050565b60006020820190506120846000830184612060565b92915050565b61209381611fde565b82525050565b60006020820190506120ae600083018461208a565b92915050565b6000602082840312156120ca576120c9611f76565b5b60006120d884828501611fff565b91505092915050565b6000806000606084860312156120fa576120f9611f76565b5b600061210886828701611fc9565b935050602061211986828701611fc9565b925050604061212a86828701611fff565b9150509250925092565b600080fd5b600080fd5b7f4e487b7100000000000000000000000000000000000000000000000000000000600052604160045260246000fd5b61217682611f00565b810181811067ffffffffffffffff821117156121955761219461213e565b5b80604052505050565b60006121a8611f6c565b90506121b4828261216d565b919050565b600067ffffffffffffffff8211156121d4576121d361213e565b5b6121dd82611f00565b9050602081019050919050565b82818337600083830152505050565b600061220c612207846121b9565b61219e565b90508281526020810184848401111561222857612227612139565b5b6122338482856121ea565b509392505050565b600082601f8301126122505761224f612134565b5b81356122608482602086016121f9565b91505092915050565b6000806000806080858703121561228357612282611f76565b5b600061229187828801611fff565b94505060206122a287828801611fff565b935050604085013567ffffffffffffffff8111156122c3576122c2611f7b565b5b6122cf8782880161223b565b92505060606122e087828801611fff565b91505092959194509250565b6122f581611fa0565b82525050565b600060e082019050612310600083018a61208a565b61231d60208301896122ec565b61232a604083018861208a565b612337606083018761208a565b612344608083018661208a565b61235160a0830185612060565b81810360c08301526123638184611f11565b905098975050505050505050565b600060ff82169050919050565b61238781612371565b82525050565b60006020820190506123a2600083018461237e565b92915050565b6123b181611fde565b82525050565b6123c081611fa0565b82525050565b6123cf81612054565b82525050565b600082825260208201905092915050565b60006123f182611eba565b6123fb81856123d5565b935061240b818560208601611ed6565b61241481611f00565b840191505092915050565b600060e08301600083015161243760008601826123a8565b50602083015161244a60208601826123b7565b50604083015161245d60408601826123a8565b50606083015161247060608601826123a8565b50608083015161248360808601826123a8565b5060a083015161249660a08601826123c6565b5060c083015184820360c08601526124ae82826123e6565b9150508091505092915050565b600060208201905081810360008301526124d5818461241f565b905092915050565b6000602082840312156124f3576124f2611f76565b5b600061250184828501611fc9565b91505092915050565b600060208201905061251f60008301846122ec565b92915050565b600081519050919050565b600082825260208201905092915050565b6000819050602082019050919050565b600061255d83836123a8565b60208301905092915050565b6000602082019050919050565b600061258182612525565b61258b8185612530565b935061259683612541565b8060005b838110156125c75781516125ae8882612551565b97506125b983612569565b92505060018101905061259a565b5085935050505092915050565b600060208201905081810360008301526125ee8184612576565b905092915050565b6000806040838503121561260d5761260c611f76565b5b600061261b85828601611fc9565b925050602061262c85828601611fc9565b9150509250929050565b600060608201905061264b600083018661208a565b612658602083018561208a565b612665604083018461208a565b949350505050565b7f4e487b7100000000000000000000000000000000000000000000000000000000600052602260045260246000fd5b600060028204905060018216806126b457607f821691505b6020821081036126c7576126c661266d565b5b50919050565b7f546f6b656e20616d6f756e74206d75737420626520677265617465722074686160008201527f6e20300000000000000000000000000000000000000000000000000000000000602082015250565b6000612729602383611ec5565b9150612734826126cd565b604082019050919050565b600060208201905081810360008301526127588161271c565b9050919050565b7f446973636f756e74206d757374206265206265747765656e20312d3130302500600082015250565b6000612795601f83611ec5565b91506127a08261275f565b602082019050919050565b600060208201905081810360008301526127c481612788565b9050919050565b7f56616c6964697479206d757374206265206265747765656e20312d333635206460008201527f6179730000000000000000000000000000000000000000000000000000000000602082015250565b6000612827602383611ec5565b9150612832826127cb565b604082019050919050565b600060208201905081810360008301526128568161281a565b9050919050565b7f4e487b7100000000000000000000000000000000000000000000000000000000600052601160045260246000fd5b600061289782611fde565b91506128a283611fde565b92508282026128b081611fde565b915082820484148315176128c7576128c661285d565b5b5092915050565b7f4e487b7100000000000000000000000000000000000000000000000000000000600052601260045260246000fd5b600061290882611fde565b915061291383611fde565b925082612923576129226128ce565b5b828204905092915050565b600061293982611fde565b915061294483611fde565b925082820190508082111561295c5761295b61285d565b5b92915050565b7f496e73756666696369656e7420746f6b656e2062616c616e63652028696e636c60008201527f7564696e67206665652900000000000000000000000000000000000000000000602082015250565b60006129be602a83611ec5565b91506129c982612962565b604082019050919050565b600060208201905081810360008301526129ed816129b1565b9050919050565b60006129ff82611fde565b91507fffffffffffffffffffffffffffffffffffffffffffffffffffffffffffffffff8203612a3157612a3061285d565b5b600182019050919050565b60008190508160005260206000209050919050565b60006020601f8301049050919050565b600082821b905092915050565b600060088302612a9e7fffffffffffffffffffffffffffffffffffffffffffffffffffffffffffffffff82612a61565b612aa88683612a61565b95508019841693508086168417925050509392505050565b6000819050919050565b6000612ae5612ae0612adb84611fde565b612ac0565b611fde565b9050919050565b6000819050919050565b612aff83612aca565b612b13612b0b82612aec565b848454612a6e565b825550505050565b600090565b612b28612b1b565b612b33818484612af6565b505050565b5b81811015612b5757612b4c600082612b20565b600181019050612b39565b5050565b601f821115612b9c57612b6d81612a3c565b612b7684612a51565b81016020851015612b85578190505b612b99612b9185612a51565b830182612b38565b50505b505050565b600082821c905092915050565b6000612bbf60001984600802612ba1565b1980831691505092915050565b6000612bd88383612bae565b9150826002028217905092915050565b612bf182611eba565b67ffffffffffffffff811115612c0a57612c0961213e565b5b612c14825461269c565b612c1f828285612b5b565b600060209050601f831160018114612c525760008415612c40578287015190505b612c4a8582612bcc565b865550612cb2565b601f198416612c6086612a3c565b60005b82811015612c8857848901518255600182019150602085019450602081019050612c63565b86831015612ca55784890151612ca1601f891682612bae565b8355505b6001600288020188555050505b505050505050565b6000604082019050612ccf600083018561208a565b612cdc602083018461208a565b9392505050565b60008160011c9050919050565b6000808291508390505b6001851115612d3a57808604811115612d1657612d1561285d565b5b6001851615612d255780820291505b8081029050612d3385612ce3565b9450612cfa565b94509492505050565b600082612d535760019050612e0f565b81612d615760009050612e0f565b8160018114612d775760028114612d8157612db0565b6001915050612e0f565b60ff841115612d9357612d9261285d565b5b8360020a915084821115612daa57612da961285d565b5b50612e0f565b5060208310610133831016604e8410600b8410161715612de55782820a905083811115612de057612ddf61285d565b5b612e0f565b612df28484846001612cf0565b92509050818404811115612e0957612e0861285d565b5b81810290505b9392505050565b6000612e2182611fde565b9150612e2c83612371565b9250612e597fffffffffffffffffffffffffffffffffffffffffffffffffffffffffffffffff8484612d43565b905092915050565b7f4e6f7420636f75706f6e206f776e657200000000000000000000000000000000600082015250565b6000612e97601083611ec5565b9150612ea282612e61565b602082019050919050565b60006020820190508181036000830152612ec681612e8a565b9050919050565b7f436f75706f6e20616c7265616479207573656400000000000000000000000000600082015250565b6000612f03601383611ec5565b9150612f0e82612ecd565b602082019050919050565b60006020820190508181036000830152612f3281612ef6565b9050919050565b7f436f75706f6e2065787069726564000000000000000000000000000000000000600082015250565b6000612f6f600e83611ec5565b9150612f7a82612f39565b602082019050919050565b60006020820190508181036000830152612f9e81612f62565b9050919050565b7f416d6f756e74207370656e74206d75737420626520677265617465722074686160008201527f6e20300000000000000000000000000000000000000000000000000000000000602082015250565b6000613001602383611ec5565b915061300c82612fa5565b604082019050919050565b6000602082019050818103600083015261303081612ff4565b9050919050565b7f416d6f756e74207370656e74206d757374206265206174206c6561737420756e60008201527f697456616c756520746f206561726e20746f6b656e7300000000000000000000602082015250565b6000613093603683611ec5565b915061309e82613037565b604082019050919050565b600060208201905081810360008301526130c281613086565b9050919050565b7f4e6f20746f6b656e7320746f206d696e74000000000000000000000000000000600082015250565b60006130ff601183611ec5565b915061310a826130c9565b602082019050919050565b6000602082019050818103600083015261312e816130f2565b9050919050565b7f4665652063616e6e6f7420657863656564203130250000000000000000000000600082015250565b600061316b601583611ec5565b915061317682613135565b602082019050919050565b6000602082019050818103600083015261319a8161315e565b9050919050565b60006060820190506131b660008301866122ec565b6131c3602083018561208a565b6131d0604083018461208a565b94935050505056fea2646970667358221220cbd2d2039cb2cfe9375a67cdaff10f7b0cc2331c23e3de6722e544d483b04ad364736f6c634300081c0033",
  "linkReferences": {},
  "deployedLinkReferences": {}
}