{
  "_format": "hh-sol-artifact-1",
  "contractName": "LoyaltyToken",
  "sourceName": "contracts/LoyaltyToken.sol",
  "abi": [
    {
      "inputs": [],
      "stateMutability": "nonpayable",
      "type": "constructor"
    },
    {
      "inputs": [
        {
          "internalType": "address",
          "name": "spender",
          "type": "address"
        },
        {
          "internalType": "uint256",
          "name": "allowance",
          "type": "uint256"
        },
        {
          "internalType": "uint256",
          "name": "needed",
          "type": "uint256"
        }
      ],
      "name": "ERC20InsufficientAllowance",
      "type": "error"
    },
    {
      "inputs": [
        {
          "internalType": "address",
          "name": "sender",
          "type": "address"
        },
        {
          "internalType": "uint256",
          "name": "balance",
          "type": "uint256"
        },
        {
          "internalType": "uint256",
          "name": "needed",
          "type": "uint256"
        }
      ],
      "name": "ERC20InsufficientBalance",
      "type": "error"
    },
    {
      "inputs": [
        {
          "internalType": "address",
          "name": "approver",
          "type": "address"
        }
      ],
      "name": "ERC20InvalidApprover",
      "type": "error"
    },
    {
      "inputs": [
        {
          "internalType": "address",
          "name": "receiver",
          "type": "address"
        }
      ],
      "name": "ERC20InvalidReceiver",
      "type": "error"
    },
    {
      "inputs": [
        {
          "internalType": "address",
          "name": "sender",
          "type": "address"
        }
      ],
      "name": "ERC20InvalidSender",
      "type": "error"
    },
    {
      "inputs": [
        {
          "internalType": "address",
          "name": "spender",
          "type": "address"
        }
      ],
      "name": "ERC20InvalidSpender",
      "type": "error"
    },
    {
      "inputs": [
        {
          "internalType": "address",
          "name": "owner",
          "type": "address"
        }
      ],
      "name": "OwnableInvalidOwner",
      "type": "error"
    },
    {
      "inputs": [
        {
          "internalType": "address",
          "name": "account",
          "type": "address"
        }
      ],
      "name": "OwnableUnauthorizedAccount",
      "type": "error"
    },
    {
      "anonymous": false,
      "inputs": [
        {
          "indexed": true,
          "internalType": "address",
          "name": "owner",
          "type": "address"
        },
        {
          "indexed": true,
          "internalType": "address",
          "name": "spender",
          "type": "address"
        },
        {
          "indexed": false,
          "internalType": "uint256",
          "name": "value",
          "type": "uint256"
        }
      ],
      "name": "Approval",
      "type": "event"
    },
    {
      "anonymous": false,
      "inputs": [
        {
          "indexed": true,
          "internalType": "address",
          "name": "previousOwner",
          "type": "address"
        },
        {
          "indexed": true,
          "internalType": "address",
          "name": "newOwner",
          "type": "address"
        }
      ],
      "name": "OwnershipTransferred",
      "type": "event"
    },
    {
      "anonymous": false,
      "inputs": [
        {
          "indexed": true,
          "internalType": "address",
          "name": "user",
          "type": "address"
        },
        {
          "indexed": false,
          "internalType": "uint256",
          "name": "amount",
          "type": "uint256"
        }
      ],
      "name": "TokensRedeemed",
      "type": "event"
    },
    {
      "anonymous": false,
      "inputs": [
        {
          "indexed": true,
          "internalType": "address",
          "name": "from",
          "type": "address"
        },
        {
          "indexed": true,
          "internalType": "address",
          "name": "to",
          "type": "address"
        },
        {
          "indexed": false,
          "internalType": "uint256",
          "name": "value",
          "type": "uint256"
        }
      ],
      "name": "Transfer",
      "type": "event"
    },
    {
      "inputs": [
        {
          "internalType": "address",
          "name": "owner",
          "type": "address"
        },
        {
          "internalType": "address",
          "name": "spender",
          "type": "address"
        }
      ],
      "name": "allowance",
      "outputs": [
        {
          "internalType": "uint256",
          "name": "",
          "type": "uint256"
        }
      ],
      "stateMutability": "view",
      "type": "function"
    },
    {
      "inputs": [
        {
          "internalType": "address",
          "name": "spender",
          "type": "address"
        },
        {
          "internalType": "uint256",
          "name": "value",
          "type": "uint256"
        }
      ],
      "name": "approve",
      "outputs": [
        {
          "internalType": "bool",
          "name": "",
          "type": "bool"
        }
      ],
      "stateMutability": "nonpayable",
      "type": "function"
    },
    {
      "inputs": [
        {
          "internalType": "address",
          "name": "account",
          "type": "address"
        }
      ],
      "name": "balanceOf",
      "outputs": [
        {
          "internalType": "uint256",
          "name": "",
          "type": "uint256"
        }
      ],
      "stateMutability": "view",
      "type": "function"
    },
    {
      "inputs": [],
      "name": "decimals",
      "outputs": [
        {
          "internalType": "uint8",
          "name": "",
          "type": "uint8"
        }
      ],
      "stateMutability": "view",
      "type": "function"
    },
    {
      "inputs": [
        {
          "internalType": "address",
          "name": "customer",
          "type": "address"
        },
        {
          "internalType": "uint256",
          "name": "amountSpent",
          "type": "uint256"
        }
      ],
      "name": "earnTokens",
      "outputs": [],
      "stateMutability": "nonpayable",
      "type": "function"
    },
    {
      "inputs": [
        {
          "internalType": "uint256",
          "name": "amountSpent",
          "type": "uint256"
        }
      ],
      "name": "earnTokensForSelf",
      "outputs": [],
      "stateMutability": "nonpayable",
      "type": "function"
    },
    {
      "inputs": [],
      "name": "emissionRate",
      "outputs": [
        {
          "internalType": "uint256",
          "name": "",
          "type": "uint256"
        }
      ],
      "stateMutability": "view",
      "type": "function"
    },
    {
      "inputs": [],
      "name": "getTokenMetrics",
      "outputs": [
        {
          "internalType": "uint256",
          "name": "totalMintedTokens",
          "type": "uint256"
        },
        {
          "internalType": "uint256",
          "name": "totalBurnedTokens",
          "type": "uint256"
        },
        {
          "internalType": "uint256",
          "name": "currentSupply",
          "type": "uint256"
        }
      ],
      "stateMutability": "view",
      "type": "function"
    },
    {
      "inputs": [],
      "name": "name",
      "outputs": [
        {
          "internalType": "string",
          "name": "",
          "type": "string"
        }
      ],
      "stateMutability": "view",
      "type": "function"
    },
    {
      "inputs": [],
      "name": "owner",
      "outputs": [
        {
          "internalType": "address",
          "name": "",
          "type": "address"
        }
      ],
      "stateMutability": "view",
      "type": "function"
    },
    {
      "inputs": [
        {
          "internalType": "uint256",
          "name": "amount",
          "type": "uint256"
        }
      ],
      "name": "redeemReward",
      "outputs": [],
      "stateMutability": "nonpayable",
      "type": "function"
    },
    {
      "inputs": [],
      "name": "renounceOwnership",
      "outputs": [],
      "stateMutability": "nonpayable",
      "type": "function"
    },
    {
      "inputs": [
        {
          "internalType": "uint256",
          "name": "_rate",
          "type": "uint256"
        }
      ],
      "name": "setEmissionRate",
      "outputs": [],
      "stateMutability": "nonpayable",
      "type": "function"
    },
    {
      "inputs": [
        {
          "internalType": "uint256",
          "name": "_unit",
          "type": "uint256"
        }
      ],
      "name": "setUnitValue",
      "outputs": [],
      "stateMutability": "nonpayable",
      "type": "function"
    },
    {
      "inputs": [],
      "name": "symbol",
      "outputs": [
        {
          "internalType": "string",
          "name": "",
          "type": "string"
        }
      ],
      "stateMutability": "view",
      "type": "function"
    },
    {
      "inputs": [],
      "name": "totalBurned",
      "outputs": [
        {
          "internalType": "uint256",
          "name": "",
          "type": "uint256"
        }
      ],
      "stateMutability": "view",
      "type": "function"
    },
    {
      "inputs": [],
      "name": "totalMinted",
      "outputs": [
        {
          "internalType": "uint256",
          "name": "",
          "type": "uint256"
        }
      ],
      "stateMutability": "view",
      "type": "function"
    },
    {
      "inputs": [],
      "name": "totalSupply",
      "outputs": [
        {
          "internalType": "uint256",
          "name": "",
          "type": "uint256"
        }
      ],
      "stateMutability": "view",
      "type": "function"
    },
    {
      "inputs": [
        {
          "internalType": "address",
          "name": "to",
          "type": "address"
        },
        {
          "internalType": "uint256",
          "name": "value",
          "type": "uint256"
        }
      ],
      "name": "transfer",
      "outputs": [
        {
          "internalType": "bool",
          "name": "",
          "type": "bool"
        }
      ],
      "stateMutability": "nonpayable",
      "type": "function"
    },
    {
      "inputs": [
        {
          "internalType": "address",
          "name": "from",
          "type": "address"
        },
        {
          "internalType": "address",
          "name": "to",
          "type": "address"
        },
        {
          "internalType": "uint256",
          "name": "value",
          "type": "uint256"
        }
      ],
      "name": "transferFrom",
      "outputs": [
        {
          "internalType": "bool",
          "name": "",
          "type": "bool"
        }
      ],
      "stateMutability": "nonpayable",
      "type": "function"
    },
    {
      "inputs": [
        {
          "internalType": "address",
          "name": "newOwner",
          "type": "address"
        }
      ],
      "name": "transferOwnership",
      "outputs": [],
      "stateMutability": "nonpayable",
      "type": "function"
    },
    {
      "inputs": [],
      "name": "unitValue",
      "outputs": [
        {
          "internalType": "uint256",
          "name": "",
          "type": "uint256"
        }
      ],
      "stateMutability": "view",
      "type": "function"
    }
  ],
  "bytecode": "0x60806040526001600655600360075534801561001a57600080fd5b50336040518060400160405280600c81526020017f4c6f79616c7479546f6b656e00000000000000000000000000000000000000008152506040518060400160405280600581526020017f4c4f59414c00000000000000000000000000000000000000000000000000000081525081600390816100979190610740565b5080600490816100a79190610740565b505050600073ffffffffffffffffffffffffffffffffffffffff168173ffffffffffffffffffffffffffffffffffffffff160361011c5760006040517f1e4fbdf70000000000000000000000000000000000000000000000000000000081526004016101139190610853565b60405180910390fd5b61012b8161017460201b60201c565b50600061013c61023a60201b60201c565b600a61014891906109dd565b6103e86101559190610a28565b9050610167338261024360201b60201c565b8060088190555050610aff565b6000600560009054906101000a900473ffffffffffffffffffffffffffffffffffffffff16905081600560006101000a81548173ffffffffffffffffffffffffffffffffffffffff021916908373ffffffffffffffffffffffffffffffffffffffff1602179055508173ffffffffffffffffffffffffffffffffffffffff168173ffffffffffffffffffffffffffffffffffffffff167f8be0079c531659141344cd1fd0a4f28419497f9722a3daafe3b4186f6b6457e060405160405180910390a35050565b60006012905090565b600073ffffffffffffffffffffffffffffffffffffffff168273ffffffffffffffffffffffffffffffffffffffff16036102b55760006040517fec442f050000000000000000000000000000000000000000000000000000000081526004016102ac9190610853565b60405180910390fd5b6102c7600083836102cb60201b60201c565b5050565b600073ffffffffffffffffffffffffffffffffffffffff168373ffffffffffffffffffffffffffffffffffffffff160361031d5780600260008282546103119190610a6a565b925050819055506103f0565b60008060008573ffffffffffffffffffffffffffffffffffffffff1673ffffffffffffffffffffffffffffffffffffffff168152602001908152602001600020549050818110156103a9578381836040517fe450d38c0000000000000000000000000000000000000000000000000000000081526004016103a093929190610aad565b60405180910390fd5b8181036000808673ffffffffffffffffffffffffffffffffffffffff1673ffffffffffffffffffffffffffffffffffffffff16815260200190815260200160002081905550505b600073ffffffffffffffffffffffffffffffffffffffff168273ffffffffffffffffffffffffffffffffffffffff16036104395780600260008282540392505081905550610486565b806000808473ffffffffffffffffffffffffffffffffffffffff1673ffffffffffffffffffffffffffffffffffffffff168152602001908152602001600020600082825401925050819055505b8173ffffffffffffffffffffffffffffffffffffffff168373ffffffffffffffffffffffffffffffffffffffff167fddf252ad1be2c89b69c2b068fc378daa952ba7f163c4a11628f55a4df523b3ef836040516104e39190610ae4565b60405180910390a3505050565b600081519050919050565b7f4e487b7100000000000000000000000000000000000000000000000000000000600052604160045260246000fd5b7f4e487b7100000000000000000000000000000000000000000000000000000000600052602260045260246000fd5b6000600282049050600182168061057157607f821691505b6020821081036105845761058361052a565b5b50919050565b60008190508160005260206000209050919050565b60006020601f8301049050919050565b600082821b905092915050565b6000600883026105ec7fffffffffffffffffffffffffffffffffffffffffffffffffffffffffffffffff826105af565b6105f686836105af565b95508019841693508086168417925050509392505050565b6000819050919050565b6000819050919050565b600061063d6106386106338461060e565b610618565b61060e565b9050919050565b6000819050919050565b61065783610622565b61066b61066382610644565b8484546105bc565b825550505050565b600090565b610680610673565b61068b81848461064e565b505050565b5b818110156106af576106a4600082610678565b600181019050610691565b5050565b601f8211156106f4576106c58161058a565b6106ce8461059f565b810160208510156106dd578190505b6106f16106e98561059f565b830182610690565b50505b505050565b600082821c905092915050565b6000610717600019846008026106f9565b1980831691505092915050565b60006107308383610706565b9150826002028217905092915050565b610749826104f0565b67ffffffffffffffff811115610762576107616104fb565b5b61076c8254610559565b6107778282856106b3565b600060209050601f8311600181146107aa5760008415610798578287015190505b6107a28582610724565b86555061080a565b601f1984166107b88661058a565b60005b828110156107e0578489015182556001820191506020850194506020810190506107bb565b868310156107fd57848901516107f9601f891682610706565b8355505b6001600288020188555050505b505050505050565b600073ffffffffffffffffffffffffffffffffffffffff82169050919050565b600061083d82610812565b9050919050565b61084d81610832565b82525050565b60006020820190506108686000830184610844565b92915050565b7f4e487b7100000000000000000000000000000000000000000000000000000000600052601160045260246000fd5b60008160011c9050919050565b6000808291508390505b60018511156108f4578086048111156108d0576108cf61086e565b5b60018516156108df5780820291505b80810290506108ed8561089d565b94506108b4565b94509492505050565b60008261090d57600190506109c9565b8161091b57600090506109c9565b8160018114610931576002811461093b5761096a565b60019150506109c9565b60ff84111561094d5761094c61086e565b5b8360020a9150848211156109645761096361086e565b5b506109c9565b5060208310610133831016604e8410600b841016171561099f5782820a90508381111561099a5761099961086e565b5b6109c9565b6109ac84848460016108aa565b925090508184048111156109c3576109c261086e565b5b81810290505b9392505050565b600060ff82169050919050565b60006109e88261060e565b91506109f3836109d0565b9250610a207fffffffffffffffffffffffffffffffffffffffffffffffffffffffffffffffff84846108fd565b905092915050565b6000610a338261060e565b9150610a3e8361060e565b9250828202610a4c8161060e565b91508282048414831517610a6357610a6261086e565b5b5092915050565b6000610a758261060e565b9150610a808361060e565b9250828201905080821115610a9857610a9761086e565b5b92915050565b610aa78161060e565b82525050565b6000606082019050610ac26000830186610844565b610acf6020830185610a9e565b610adc6040830184610a9e565b949350505050565b6000602082019050610af96000830184610a9e565b92915050565b6119ec80610b0e6000396000f3fe608060405234801561001057600080fd5b50600436106101425760003560e01c80638da5cb5b116100b8578063a9059cbb1161007c578063a9059cbb1461033f578063b7d0a9071461036f578063d89135cd1461038d578063dd62ed3e146103ab578063f0d673f3146103db578063f2fde38b146103fb57610142565b80638da5cb5b146102ab57806395d89b41146102c957806396afc450146102e7578063a1bdb15e14610305578063a2309ff81461032157610142565b8063313ce5671161010a578063313ce567146101ff57806351a71b171461021d578063562cb2c21461023957806370a0823114610255578063715018a6146102855780638317a6e01461028f57610142565b806306fdde0314610147578063095ea7b31461016557806318160ddd14610195578063207b11cc146101b357806323b872dd146101cf575b600080fd5b61014f610417565b60405161015c9190611252565b60405180910390f35b61017f600480360381019061017a919061130d565b6104a9565b60405161018c9190611368565b60405180910390f35b61019d6104cc565b6040516101aa9190611392565b60405180910390f35b6101cd60048036038101906101c891906113ad565b6104d6565b005b6101e960048036038101906101e491906113da565b6104e8565b6040516101f69190611368565b60405180910390f35b610207610517565b6040516102149190611449565b60405180910390f35b610237600480360381019061023291906113ad565b610520565b005b610253600480360381019061024e919061130d565b610622565b005b61026f600480360381019061026a9190611464565b610695565b60405161027c9190611392565b60405180910390f35b61028d6106dd565b005b6102a960048036038101906102a491906113ad565b6106f1565b005b6102b361079e565b6040516102c091906114a0565b60405180910390f35b6102d16107c8565b6040516102de9190611252565b60405180910390f35b6102ef61085a565b6040516102fc9190611392565b60405180910390f35b61031f600480360381019061031a91906113ad565b610860565b005b610329610872565b6040516103369190611392565b60405180910390f35b6103596004803603810190610354919061130d565b610878565b6040516103669190611368565b60405180910390f35b61037761089b565b6040516103849190611392565b60405180910390f35b6103956108a1565b6040516103a29190611392565b60405180910390f35b6103c560048036038101906103c091906114bb565b6108a7565b6040516103d29190611392565b60405180910390f35b6103e361092e565b6040516103f2939291906114fb565b60405180910390f35b61041560048036038101906104109190611464565b61094c565b005b60606003805461042690611561565b80601f016020809104026020016040519081016040528092919081815260200182805461045290611561565b801561049f5780601f106104745761010080835404028352916020019161049f565b820191906000526020600020905b81548152906001019060200180831161048257829003601f168201915b5050505050905090565b6000806104b46109d2565b90506104c18185856109da565b600191505092915050565b6000600254905090565b6104de6109ec565b8060078190555050565b6000806104f36109d2565b9050610500858285610a73565b61050b858585610b08565b60019150509392505050565b60006012905090565b60008111610563576040517f08c379a000000000000000000000000000000000000000000000000000000000815260040161055a906115de565b60405180910390fd5b8061056d33610695565b10156105ae576040517f08c379a00000000000000000000000000000000000000000000000000000000081526004016105a59061164a565b60405180910390fd5b6105b83382610bfc565b80600960008282546105ca9190611699565b925050819055503373ffffffffffffffffffffffffffffffffffffffff167fcdd4c59de26b3f8623e6012ab9bc32a995eda3452d89c941fc8af6b74276ad38826040516106179190611392565b60405180910390a250565b61062a6109ec565b60006006546007548361063d91906116fc565b610647919061172d565b90506000610653610517565b600a61065f91906118a2565b8261066a919061172d565b90506106768482610c7e565b80600860008282546106889190611699565b9250508190555050505050565b60008060008373ffffffffffffffffffffffffffffffffffffffff1673ffffffffffffffffffffffffffffffffffffffff168152602001908152602001600020549050919050565b6106e56109ec565b6106ef6000610d00565b565b60008111610734576040517f08c379a000000000000000000000000000000000000000000000000000000000815260040161072b9061195f565b60405180910390fd5b60006006546007548361074791906116fc565b610751919061172d565b9050600061075d610517565b600a61076991906118a2565b82610774919061172d565b90506107803382610c7e565b80600860008282546107929190611699565b92505081905550505050565b6000600560009054906101000a900473ffffffffffffffffffffffffffffffffffffffff16905090565b6060600480546107d790611561565b80601f016020809104026020016040519081016040528092919081815260200182805461080390611561565b80156108505780601f1061082557610100808354040283529160200191610850565b820191906000526020600020905b81548152906001019060200180831161083357829003601f168201915b5050505050905090565b60065481565b6108686109ec565b8060068190555050565b60085481565b6000806108836109d2565b9050610890818585610b08565b600191505092915050565b60075481565b60095481565b6000600160008473ffffffffffffffffffffffffffffffffffffffff1673ffffffffffffffffffffffffffffffffffffffff16815260200190815260200160002060008373ffffffffffffffffffffffffffffffffffffffff1673ffffffffffffffffffffffffffffffffffffffff16815260200190815260200160002054905092915050565b60008060006008546009546109416104cc565b925092509250909192565b6109546109ec565b600073ffffffffffffffffffffffffffffffffffffffff168173ffffffffffffffffffffffffffffffffffffffff16036109c65760006040517f1e4fbdf70000000000000000000000000000000000000000000000000000000081526004016109bd91906114a0565b60405180910390fd5b6109cf81610d00565b50565b600033905090565b6109e78383836001610dc6565b505050565b6109f46109d2565b73ffffffffffffffffffffffffffffffffffffffff16610a1261079e565b73ffffffffffffffffffffffffffffffffffffffff1614610a7157610a356109d2565b6040517f118cdaa7000000000000000000000000000000000000000000000000000000008152600401610a6891906114a0565b60405180910390fd5b565b6000610a7f84846108a7565b90507fffffffffffffffffffffffffffffffffffffffffffffffffffffffffffffffff811015610b025781811015610af2578281836040517ffb8f41b2000000000000000000000000000000000000000000000000000000008152600401610ae99392919061197f565b60405180910390fd5b610b0184848484036000610dc6565b5b50505050565b600073ffffffffffffffffffffffffffffffffffffffff168373ffffffffffffffffffffffffffffffffffffffff1603610b7a5760006040517f96c6fd1e000000000000000000000000000000000000000000000000000000008152600401610b7191906114a0565b60405180910390fd5b600073ffffffffffffffffffffffffffffffffffffffff168273ffffffffffffffffffffffffffffffffffffffff1603610bec5760006040517fec442f05000000000000000000000000000000000000000000000000000000008152600401610be391906114a0565b60405180910390fd5b610bf7838383610f9d565b505050565b600073ffffffffffffffffffffffffffffffffffffffff168273ffffffffffffffffffffffffffffffffffffffff1603610c6e5760006040517f96c6fd1e000000000000000000000000000000000000000000000000000000008152600401610c6591906114a0565b60405180910390fd5b610c7a82600083610f9d565b5050565b600073ffffffffffffffffffffffffffffffffffffffff168273ffffffffffffffffffffffffffffffffffffffff1603610cf05760006040517fec442f05000000000000000000000000000000000000000000000000000000008152600401610ce791906114a0565b60405180910390fd5b610cfc60008383610f9d565b5050565b6000600560009054906101000a900473ffffffffffffffffffffffffffffffffffffffff16905081600560006101000a81548173ffffffffffffffffffffffffffffffffffffffff021916908373ffffffffffffffffffffffffffffffffffffffff1602179055508173ffffffffffffffffffffffffffffffffffffffff168173ffffffffffffffffffffffffffffffffffffffff167f8be0079c531659141344cd1fd0a4f28419497f9722a3daafe3b4186f6b6457e060405160405180910390a35050565b600073ffffffffffffffffffffffffffffffffffffffff168473ffffffffffffffffffffffffffffffffffffffff1603610e385760006040517fe602df05000000000000000000000000000000000000000000000000000000008152600401610e2f91906114a0565b60405180910390fd5b600073ffffffffffffffffffffffffffffffffffffffff168373ffffffffffffffffffffffffffffffffffffffff1603610eaa5760006040517f94280d62000000000000000000000000000000000000000000000000000000008152600401610ea191906114a0565b60405180910390fd5b81600160008673ffffffffffffffffffffffffffffffffffffffff1673ffffffffffffffffffffffffffffffffffffffff16815260200190815260200160002060008573ffffffffffffffffffffffffffffffffffffffff1673ffffffffffffffffffffffffffffffffffffffff168152602001908152602001600020819055508015610f97578273ffffffffffffffffffffffffffffffffffffffff168473ffffffffffffffffffffffffffffffffffffffff167f8c5be1e5ebec7d5bd14f71427d1e84f3dd0314c0f7b2291e5b200ac8c7c3b92584604051610f8e9190611392565b60405180910390a35b50505050565b600073ffffffffffffffffffffffffffffffffffffffff168373ffffffffffffffffffffffffffffffffffffffff1603610fef578060026000828254610fe39190611699565b925050819055506110c2565b60008060008573ffffffffffffffffffffffffffffffffffffffff1673ffffffffffffffffffffffffffffffffffffffff1681526020019081526020016000205490508181101561107b578381836040517fe450d38c0000000000000000000000000000000000000000000000000000000081526004016110729392919061197f565b60405180910390fd5b8181036000808673ffffffffffffffffffffffffffffffffffffffff1673ffffffffffffffffffffffffffffffffffffffff16815260200190815260200160002081905550505b600073ffffffffffffffffffffffffffffffffffffffff168273ffffffffffffffffffffffffffffffffffffffff160361110b5780600260008282540392505081905550611158565b806000808473ffffffffffffffffffffffffffffffffffffffff1673ffffffffffffffffffffffffffffffffffffffff168152602001908152602001600020600082825401925050819055505b8173ffffffffffffffffffffffffffffffffffffffff168373ffffffffffffffffffffffffffffffffffffffff167fddf252ad1be2c89b69c2b068fc378daa952ba7f163c4a11628f55a4df523b3ef836040516111b59190611392565b60405180910390a3505050565b600081519050919050565b600082825260208201905092915050565b60005b838110156111fc5780820151818401526020810190506111e1565b60008484015250505050565b6000601f19601f8301169050919050565b6000611224826111c2565b61122e81856111cd565b935061123e8185602086016111de565b61124781611208565b840191505092915050565b6000602082019050818103600083015261126c8184611219565b905092915050565b600080fd5b600073ffffffffffffffffffffffffffffffffffffffff82169050919050565b60006112a482611279565b9050919050565b6112b481611299565b81146112bf57600080fd5b50565b6000813590506112d1816112ab565b92915050565b6000819050919050565b6112ea816112d7565b81146112f557600080fd5b50565b600081359050611307816112e1565b92915050565b6000806040838503121561132457611323611274565b5b6000611332858286016112c2565b9250506020611343858286016112f8565b9150509250929050565b60008115159050919050565b6113628161134d565b82525050565b600060208201905061137d6000830184611359565b92915050565b61138c816112d7565b82525050565b60006020820190506113a76000830184611383565b92915050565b6000602082840312156113c3576113c2611274565b5b60006113d1848285016112f8565b91505092915050565b6000806000606084860312156113f3576113f2611274565b5b6000611401868287016112c2565b9350506020611412868287016112c2565b9250506040611423868287016112f8565b9150509250925092565b600060ff82169050919050565b6114438161142d565b82525050565b600060208201905061145e600083018461143a565b92915050565b60006020828403121561147a57611479611274565b5b6000611488848285016112c2565b91505092915050565b61149a81611299565b82525050565b60006020820190506114b56000830184611491565b92915050565b600080604083850312156114d2576114d1611274565b5b60006114e0858286016112c2565b92505060206114f1858286016112c2565b9150509250929050565b60006060820190506115106000830186611383565b61151d6020830185611383565b61152a6040830184611383565b949350505050565b7f4e487b7100000000000000000000000000000000000000000000000000000000600052602260045260246000fd5b6000600282049050600182168061157957607f821691505b60208210810361158c5761158b611532565b5b50919050565b7f416d6f756e74206d7573742062652067726561746572207468616e2030000000600082015250565b60006115c8601d836111cd565b91506115d382611592565b602082019050919050565b600060208201905081810360008301526115f7816115bb565b9050919050565b7f496e73756666696369656e7420746f6b656e2062616c616e6365000000000000600082015250565b6000611634601a836111cd565b915061163f826115fe565b602082019050919050565b6000602082019050818103600083015261166381611627565b9050919050565b7f4e487b7100000000000000000000000000000000000000000000000000000000600052601160045260246000fd5b60006116a4826112d7565b91506116af836112d7565b92508282019050808211156116c7576116c661166a565b5b92915050565b7f4e487b7100000000000000000000000000000000000000000000000000000000600052601260045260246000fd5b6000611707826112d7565b9150611712836112d7565b925082611722576117216116cd565b5b828204905092915050565b6000611738826112d7565b9150611743836112d7565b9250828202611751816112d7565b915082820484148315176117685761176761166a565b5b5092915050565b60008160011c9050919050565b6000808291508390505b60018511156117c6578086048111156117a2576117a161166a565b5b60018516156117b15780820291505b80810290506117bf8561176f565b9450611786565b94509492505050565b6000826117df576001905061189b565b816117ed576000905061189b565b8160018114611803576002811461180d5761183c565b600191505061189b565b60ff84111561181f5761181e61166a565b5b8360020a9150848211156118365761183561166a565b5b5061189b565b5060208310610133831016604e8410600b84101617156118715782820a90508381111561186c5761186b61166a565b5b61189b565b61187e848484600161177c565b925090508184048111156118955761189461166a565b5b81810290505b9392505050565b60006118ad826112d7565b91506118b88361142d565b92506118e57fffffffffffffffffffffffffffffffffffffffffffffffffffffffffffffffff84846117cf565b905092915050565b7f416d6f756e74207370656e74206d75737420626520677265617465722074686160008201527f6e20300000000000000000000000000000000000000000000000000000000000602082015250565b60006119496023836111cd565b9150611954826118ed565b604082019050919050565b600060208201905081810360008301526119788161193c565b9050919050565b60006060820190506119946000830186611491565b6119a16020830185611383565b6119ae6040830184611383565b94935050505056fea264697066735822122068ea0f833f241e9d687cfcd8eccaa68247e68c80865e3f26274c492631decb4f64736f6c634300081c0033",
  "linkReferences": {},
  "deployedLinkReferences": {}
}