{
  "_format": "hh-sol-artifact-1",
  "contractName": "SimpleDEX",
  "sourceName": "contracts/SimpleDEX.sol",
  "abi": [
    {
      "inputs": [
        {
          "internalType": "address",
          "name": "_loyalToken",
          "type": "address"
        },
        {
          "internalType": "uint256",
          "name": "_exchangeRate",
          "type": "uint256"
        },
        {
          "internalType": "uint256",
          "name": "_feePercentage",
          "type": "uint256"
        }
      ],
      "stateMutability": "nonpayable",
      "type": "constructor"
    },
    {
      "inputs": [
        {
          "internalType": "address",
          "name": "owner",
          "type": "address"
        }
      ],
      "name": "OwnableInvalidOwner",
      "type": "error"
    },
    {
      "inputs": [
        {
          "internalType": "address",
          "name": "account",
          "type": "address"
        }
      ],
      "name": "OwnableUnauthorizedAccount",
      "type": "error"
    },
    {
      "inputs": [],
      "name": "ReentrancyGuardReentrantCall",
      "type": "error"
    },
    {
      "anonymous": false,
      "inputs": [
        {
          "indexed": false,
          "internalType": "uint256",
          "name": "newRate",
          "type": "uint256"
        }
      ],
      "name": "ExchangeRateUpdated",
      "type": "event"
    },
    {
      "anonymous": false,
      "inputs": [
        {
          "indexed": false,
          "internalType": "uint256",
          "name": "newFee",
          "type": "uint256"
        }
      ],
      "name": "FeeUpdated",
      "type": "event"
    },
    {
      "anonymous": false,
      "inputs": [
        {
          "indexed": true,
          "internalType": "address",
          "name": "provider",
          "type": "address"
        },
        {
          "indexed": false,
          "internalType": "uint256",
          "name": "ethAmount",
          "type": "uint256"
        },
        {
          "indexed": false,
          "internalType": "uint256",
          "name": "tokenAmount",
          "type": "uint256"
        }
      ],
      "name": "LiquidityAdded",
      "type": "event"
    },
    {
      "anonymous": false,
      "inputs": [
        {
          "indexed": true,
          "internalType": "address",
          "name": "provider",
          "type": "address"
        },
        {
          "indexed": false,
          "internalType": "uint256",
          "name": "ethAmount",
          "type": "uint256"
        },
        {
          "indexed": false,
          "internalType": "uint256",
          "name": "tokenAmount",
          "type": "uint256"
        }
      ],
      "name": "LiquidityRemoved",
      "type": "event"
    },
    {
      "anonymous": false,
      "inputs": [
        {
          "indexed": true,
          "internalType": "address",
          "name": "previousOwner",
          "type": "address"
        },
        {
          "indexed": true,
          "internalType": "address",
          "name": "newOwner",
          "type": "address"
        }
      ],
      "name": "OwnershipTransferred",
      "type": "event"
    },
    {
      "anonymous": false,
      "inputs": [
        {
          "indexed": true,
          "internalType": "address",
          "name": "user",
          "type": "address"
        },
        {
          "indexed": false,
          "internalType": "uint256",
          "name": "ethAmount",
          "type": "uint256"
        },
        {
          "indexed": false,
          "internalType": "uint256",
          "name": "tokenAmount",
          "type": "uint256"
        },
        {
          "indexed": false,
          "internalType": "bool",
          "name": "ethToToken",
          "type": "bool"
        }
      ],
      "name": "TokenSwap",
      "type": "event"
    },
    {
      "inputs": [
        {
          "internalType": "uint256",
          "name": "_tokenAmount",
          "type": "uint256"
        }
      ],
      "name": "addLiquidity",
      "outputs": [],
      "stateMutability": "payable",
      "type": "function"
    },
    {
      "inputs": [
        {
          "internalType": "uint256",
          "name": "_inputAmount",
          "type": "uint256"
        },
        {
          "internalType": "bool",
          "name": "_ethToToken",
          "type": "bool"
        }
      ],
      "name": "calculateSwap",
      "outputs": [
        {
          "internalType": "uint256",
          "name": "outputAmount",
          "type": "uint256"
        },
        {
          "internalType": "uint256",
          "name": "feeAmount",
          "type": "uint256"
        }
      ],
      "stateMutability": "view",
      "type": "function"
    },
    {
      "inputs": [],
      "name": "emergencyWithdraw",
      "outputs": [],
      "stateMutability": "nonpayable",
      "type": "function"
    },
    {
      "inputs": [],
      "name": "ethLiquidity",
      "outputs": [
        {
          "internalType": "uint256",
          "name": "",
          "type": "uint256"
        }
      ],
      "stateMutability": "view",
      "type": "function"
    },
    {
      "inputs": [],
      "name": "exchangeRate",
      "outputs": [
        {
          "internalType": "uint256",
          "name": "",
          "type": "uint256"
        }
      ],
      "stateMutability": "view",
      "type": "function"
    },
    {
      "inputs": [],
      "name": "feePercentage",
      "outputs": [
        {
          "internalType": "uint256",
          "name": "",
          "type": "uint256"
        }
      ],
      "stateMutability": "view",
      "type": "function"
    },
    {
      "inputs": [],
      "name": "getDEXStatus",
      "outputs": [
        {
          "internalType": "uint256",
          "name": "ethBalance",
          "type": "uint256"
        },
        {
          "internalType": "uint256",
          "name": "tokenBalance",
          "type": "uint256"
        },
        {
          "internalType": "uint256",
          "name": "currentRate",
          "type": "uint256"
        },
        {
          "internalType": "uint256",
          "name": "currentFee",
          "type": "uint256"
        }
      ],
      "stateMutability": "view",
      "type": "function"
    },
    {
      "inputs": [],
      "name": "loyalToken",
      "outputs": [
        {
          "internalType": "contract IERC20",
          "name": "",
          "type": "address"
        }
      ],
      "stateMutability": "view",
      "type": "function"
    },
    {
      "inputs": [],
      "name": "owner",
      "outputs": [
        {
          "internalType": "address",
          "name": "",
          "type": "address"
        }
      ],
      "stateMutability": "view",
      "type": "function"
    },
    {
      "inputs": [
        {
          "internalType": "uint256",
          "name": "_ethAmount",
          "type": "uint256"
        },
        {
          "internalType": "uint256",
          "name": "_tokenAmount",
          "type": "uint256"
        }
      ],
      "name": "removeLiquidity",
      "outputs": [],
      "stateMutability": "nonpayable",
      "type": "function"
    },
    {
      "inputs": [],
      "name": "renounceOwnership",
      "outputs": [],
      "stateMutability": "nonpayable",
      "type": "function"
    },
    {
      "inputs": [],
      "name": "swapEthForTokens",
      "outputs": [],
      "stateMutability": "payable",
      "type": "function"
    },
    {
      "inputs": [
        {
          "internalType": "uint256",
          "name": "_tokenAmount",
          "type": "uint256"
        }
      ],
      "name": "swapTokensForEth",
      "outputs": [],
      "stateMutability": "nonpayable",
      "type": "function"
    },
    {
      "inputs": [],
      "name": "tokenLiquidity",
      "outputs": [
        {
          "internalType": "uint256",
          "name": "",
          "type": "uint256"
        }
      ],
      "stateMutability": "view",
      "type": "function"
    },
    {
      "inputs": [
        {
          "internalType": "address",
          "name": "newOwner",
          "type": "address"
        }
      ],
      "name": "transferOwnership",
      "outputs": [],
      "stateMutability": "nonpayable",
      "type": "function"
    },
    {
      "inputs": [
        {
          "internalType": "uint256",
          "name": "_newRate",
          "type": "uint256"
        }
      ],
      "name": "updateExchangeRate",
      "outputs": [],
      "stateMutability": "nonpayable",
      "type": "function"
    },
    {
      "inputs": [
        {
          "internalType": "uint256",
          "name": "_newFee",
          "type": "uint256"
        }
      ],
      "name": "updateFee",
      "outputs": [],
      "stateMutability": "nonpayable",
      "type": "function"
    }
  ],
  "bytecode": "0x608060405234801561001057600080fd5b5060405161214938038061214983398181016040528101906100329190610367565b33600073ffffffffffffffffffffffffffffffffffffffff168173ffffffffffffffffffffffffffffffffffffffff16036100a55760006040517f1e4fbdf700000000000000000000000000000000000000000000000000000000815260040161009c91906103c9565b60405180910390fd5b6100b48161020a60201b60201c565b5060018081905550600073ffffffffffffffffffffffffffffffffffffffff168373ffffffffffffffffffffffffffffffffffffffff160361012b576040517f08c379a000000000000000000000000000000000000000000000000000000000815260040161012290610441565b60405180910390fd5b6000821161016e576040517f08c379a0000000000000000000000000000000000000000000000000000000008152600401610165906104ad565b60405180910390fd5b6103e88111156101b3576040517f08c379a00000000000000000000000000000000000000000000000000000000081526004016101aa90610519565b60405180910390fd5b82600260006101000a81548173ffffffffffffffffffffffffffffffffffffffff021916908373ffffffffffffffffffffffffffffffffffffffff1602179055508160038190555080600481905550505050610539565b60008060009054906101000a900473ffffffffffffffffffffffffffffffffffffffff169050816000806101000a81548173ffffffffffffffffffffffffffffffffffffffff021916908373ffffffffffffffffffffffffffffffffffffffff1602179055508173ffffffffffffffffffffffffffffffffffffffff168173ffffffffffffffffffffffffffffffffffffffff167f8be0079c531659141344cd1fd0a4f28419497f9722a3daafe3b4186f6b6457e060405160405180910390a35050565b600080fd5b600073ffffffffffffffffffffffffffffffffffffffff82169050919050565b60006102fe826102d3565b9050919050565b61030e816102f3565b811461031957600080fd5b50565b60008151905061032b81610305565b92915050565b6000819050919050565b61034481610331565b811461034f57600080fd5b50565b6000815190506103618161033b565b92915050565b6000806000606084860312156103805761037f6102ce565b5b600061038e8682870161031c565b935050602061039f86828701610352565b92505060406103b086828701610352565b9150509250925092565b6103c3816102f3565b82525050565b60006020820190506103de60008301846103ba565b92915050565b600082825260208201905092915050565b7f496e76616c696420746f6b656e20616464726573730000000000000000000000600082015250565b600061042b6015836103e4565b9150610436826103f5565b602082019050919050565b6000602082019050818103600083015261045a8161041e565b9050919050565b7f45786368616e67652072617465206d75737420626520706f7369746976650000600082015250565b6000610497601e836103e4565b91506104a282610461565b602082019050919050565b600060208201905081810360008301526104c68161048a565b9050919050565b7f46656520746f6f20686967680000000000000000000000000000000000000000600082015250565b6000610503600c836103e4565b915061050e826104cd565b602082019050919050565b60006020820190508181036000830152610532816104f6565b9050919050565b611c01806105486000396000f3fe6080604052600436106100fe5760003560e01c80639012c4a811610095578063b14e055e11610064578063b14e055e146102f6578063b28805f414610300578063b9e205ae14610329578063db2e21bc14610352578063f2fde38b14610369576100fe565b80639012c4a81461024e5780639d7de6b3146102775780639e8156f2146102a0578063a001ecdd146102cb576100fe565b806351c6590a116100d157806351c6590a146101b257806356a74512146101ce578063715018a61461020c5780638da5cb5b14610223576100fe565b806301809a32146101035780633ab711031461012e5780633ba0b9a91461015c578063478aa28414610187575b600080fd5b34801561010f57600080fd5b50610118610392565b6040516101259190611329565b60405180910390f35b34801561013a57600080fd5b50610143610398565b6040516101539493929190611344565b60405180910390f35b34801561016857600080fd5b506101716103b8565b60405161017e9190611329565b60405180910390f35b34801561019357600080fd5b5061019c6103be565b6040516101a99190611329565b60405180910390f35b6101cc60048036038101906101c791906113ba565b6103c4565b005b3480156101da57600080fd5b506101f560048036038101906101f0919061141f565b6105b0565b60405161020392919061145f565b60405180910390f35b34801561021857600080fd5b50610221610668565b005b34801561022f57600080fd5b5061023861067c565b60405161024591906114c9565b60405180910390f35b34801561025a57600080fd5b50610275600480360381019061027091906113ba565b6106a5565b005b34801561028357600080fd5b5061029e600480360381019061029991906114e4565b610733565b005b3480156102ac57600080fd5b506102b5610971565b6040516102c29190611583565b60405180910390f35b3480156102d757600080fd5b506102e0610997565b6040516102ed9190611329565b60405180910390f35b6102fe61099d565b005b34801561030c57600080fd5b50610327600480360381019061032291906113ba565b610bf2565b005b34801561033557600080fd5b50610350600480360381019061034b91906113ba565b610e91565b005b34801561035e57600080fd5b50610367610f1d565b005b34801561037557600080fd5b50610390600480360381019061038b91906115ca565b6110e8565b005b60055481565b600080600080600554600654600354600454935093509350935090919293565b60035481565b60065481565b60003411610407576040517f08c379a00000000000000000000000000000000000000000000000000000000081526004016103fe90611654565b60405180910390fd5b6000811161044a576040517f08c379a0000000000000000000000000000000000000000000000000000000008152600401610441906116c0565b60405180910390fd5b600260009054906101000a900473ffffffffffffffffffffffffffffffffffffffff1673ffffffffffffffffffffffffffffffffffffffff166323b872dd3330846040518463ffffffff1660e01b81526004016104a9939291906116e0565b6020604051808303816000875af11580156104c8573d6000803e3d6000fd5b505050506040513d601f19601f820116820180604052508101906104ec919061172c565b61052b576040517f08c379a0000000000000000000000000000000000000000000000000000000008152600401610522906117a5565b60405180910390fd5b346005600082825461053d91906117f4565b92505081905550806006600082825461055691906117f4565b925050819055503373ffffffffffffffffffffffffffffffffffffffff167fac1d76749e5447b7b16f5ab61447e1bd502f3bb4807af3b28e620d1700a6ee4534836040516105a592919061145f565b60405180910390a250565b600080821561060f576000670de0b6b3a7640000600354866105d29190611828565b6105dc9190611899565b9050612710600454826105ef9190611828565b6105f99190611899565b9150818161060791906118ca565b925050610661565b6000600354670de0b6b3a7640000866106289190611828565b6106329190611899565b9050612710600454826106459190611828565b61064f9190611899565b9150818161065d91906118ca565b9250505b9250929050565b61067061116e565b61067a60006111f5565b565b60008060009054906101000a900473ffffffffffffffffffffffffffffffffffffffff16905090565b6106ad61116e565b6103e88111156106f2576040517f08c379a00000000000000000000000000000000000000000000000000000000081526004016106e99061194a565b60405180910390fd5b806004819055507f8c4d35e54a3f2ef1134138fd8ea3daee6a3c89e10d2665996babdf70261e2c76816040516107289190611329565b60405180910390a150565b61073b61116e565b600554821115610780576040517f08c379a0000000000000000000000000000000000000000000000000000000008152600401610777906119b6565b60405180910390fd5b6006548111156107c5576040517f08c379a00000000000000000000000000000000000000000000000000000000081526004016107bc90611a22565b60405180910390fd5b81600560008282546107d791906118ca565b9250508190555080600660008282546107f091906118ca565b925050819055503373ffffffffffffffffffffffffffffffffffffffff166108fc839081150290604051600060405180830381858888f1935050505015801561083d573d6000803e3d6000fd5b50600260009054906101000a900473ffffffffffffffffffffffffffffffffffffffff1673ffffffffffffffffffffffffffffffffffffffff1663a9059cbb33836040518363ffffffff1660e01b815260040161089b929190611a42565b6020604051808303816000875af11580156108ba573d6000803e3d6000fd5b505050506040513d601f19601f820116820180604052508101906108de919061172c565b61091d576040517f08c379a0000000000000000000000000000000000000000000000000000000008152600401610914906117a5565b60405180910390fd5b3373ffffffffffffffffffffffffffffffffffffffff167f96cd817c6329656790ef8fba7675405193677d39619571282f5e21f3a98cd059838360405161096592919061145f565b60405180910390a25050565b600260009054906101000a900473ffffffffffffffffffffffffffffffffffffffff1681565b60045481565b6109a56112b9565b600034116109e8576040517f08c379a00000000000000000000000000000000000000000000000000000000081526004016109df90611654565b60405180910390fd5b6000670de0b6b3a764000060035434610a019190611828565b610a0b9190611899565b9050600061271060045483610a209190611828565b610a2a9190611899565b905060008183610a3a91906118ca565b9050806006541015610a81576040517f08c379a0000000000000000000000000000000000000000000000000000000008152600401610a7890611a22565b60405180910390fd5b3460056000828254610a9391906117f4565b925050819055508060066000828254610aac91906118ca565b92505081905550600260009054906101000a900473ffffffffffffffffffffffffffffffffffffffff1673ffffffffffffffffffffffffffffffffffffffff1663a9059cbb33836040518363ffffffff1660e01b8152600401610b10929190611a42565b6020604051808303816000875af1158015610b2f573d6000803e3d6000fd5b505050506040513d601f19601f82011682018060405250810190610b53919061172c565b610b92576040517f08c379a0000000000000000000000000000000000000000000000000000000008152600401610b89906117a5565b60405180910390fd5b3373ffffffffffffffffffffffffffffffffffffffff167f1b87f5993cecfd73e2f715b2083ba98cc631e36caae6cb9c73b7b9ed8d2a055234836001604051610bdd93929190611a7a565b60405180910390a2505050610bf06112ff565b565b610bfa6112b9565b60008111610c3d576040517f08c379a0000000000000000000000000000000000000000000000000000000008152600401610c3490611afd565b60405180910390fd5b6000600354670de0b6b3a764000083610c569190611828565b610c609190611899565b9050600061271060045483610c759190611828565b610c7f9190611899565b905060008183610c8f91906118ca565b9050806005541015610cd6576040517f08c379a0000000000000000000000000000000000000000000000000000000008152600401610ccd906119b6565b60405180910390fd5b600260009054906101000a900473ffffffffffffffffffffffffffffffffffffffff1673ffffffffffffffffffffffffffffffffffffffff166323b872dd3330876040518463ffffffff1660e01b8152600401610d35939291906116e0565b6020604051808303816000875af1158015610d54573d6000803e3d6000fd5b505050506040513d601f19601f82011682018060405250810190610d78919061172c565b610db7576040517f08c379a0000000000000000000000000000000000000000000000000000000008152600401610dae906117a5565b60405180910390fd5b8360066000828254610dc991906117f4565b925050819055508060056000828254610de291906118ca565b925050819055503373ffffffffffffffffffffffffffffffffffffffff166108fc829081150290604051600060405180830381858888f19350505050158015610e2f573d6000803e3d6000fd5b503373ffffffffffffffffffffffffffffffffffffffff167f1b87f5993cecfd73e2f715b2083ba98cc631e36caae6cb9c73b7b9ed8d2a055282866000604051610e7b93929190611a7a565b60405180910390a2505050610e8e6112ff565b50565b610e9961116e565b60008111610edc576040517f08c379a0000000000000000000000000000000000000000000000000000000008152600401610ed390611b69565b60405180910390fd5b806003819055507f388f446e9526fe5c9af20a5919b342370c8a7c0cb05245afe1e545658fa3cdba81604051610f129190611329565b60405180910390a150565b610f2561116e565b60004790506000600260009054906101000a900473ffffffffffffffffffffffffffffffffffffffff1673ffffffffffffffffffffffffffffffffffffffff166370a08231306040518263ffffffff1660e01b8152600401610f8791906114c9565b602060405180830381865afa158015610fa4573d6000803e3d6000fd5b505050506040513d601f19601f82011682018060405250810190610fc89190611b9e565b9050600082111561102257610fdb61067c565b73ffffffffffffffffffffffffffffffffffffffff166108fc839081150290604051600060405180830381858888f19350505050158015611020573d6000803e3d6000fd5b505b60008111156110d457600260009054906101000a900473ffffffffffffffffffffffffffffffffffffffff1673ffffffffffffffffffffffffffffffffffffffff1663a9059cbb61107161067c565b836040518363ffffffff1660e01b815260040161108f929190611a42565b6020604051808303816000875af11580156110ae573d6000803e3d6000fd5b505050506040513d601f19601f820116820180604052508101906110d2919061172c565b505b600060058190555060006006819055505050565b6110f061116e565b600073ffffffffffffffffffffffffffffffffffffffff168173ffffffffffffffffffffffffffffffffffffffff16036111625760006040517f1e4fbdf700000000000000000000000000000000000000000000000000000000815260040161115991906114c9565b60405180910390fd5b61116b816111f5565b50565b611176611308565b73ffffffffffffffffffffffffffffffffffffffff1661119461067c565b73ffffffffffffffffffffffffffffffffffffffff16146111f3576111b7611308565b6040517f118cdaa70000000000000000000000000000000000000000000000000000000081526004016111ea91906114c9565b60405180910390fd5b565b60008060009054906101000a900473ffffffffffffffffffffffffffffffffffffffff169050816000806101000a81548173ffffffffffffffffffffffffffffffffffffffff021916908373ffffffffffffffffffffffffffffffffffffffff1602179055508173ffffffffffffffffffffffffffffffffffffffff168173ffffffffffffffffffffffffffffffffffffffff167f8be0079c531659141344cd1fd0a4f28419497f9722a3daafe3b4186f6b6457e060405160405180910390a35050565b6002600154036112f5576040517f3ee5aeb500000000000000000000000000000000000000000000000000000000815260040160405180910390fd5b6002600181905550565b60018081905550565b600033905090565b6000819050919050565b61132381611310565b82525050565b600060208201905061133e600083018461131a565b92915050565b6000608082019050611359600083018761131a565b611366602083018661131a565b611373604083018561131a565b611380606083018461131a565b95945050505050565b600080fd5b61139781611310565b81146113a257600080fd5b50565b6000813590506113b48161138e565b92915050565b6000602082840312156113d0576113cf611389565b5b60006113de848285016113a5565b91505092915050565b60008115159050919050565b6113fc816113e7565b811461140757600080fd5b50565b600081359050611419816113f3565b92915050565b6000806040838503121561143657611435611389565b5b6000611444858286016113a5565b92505060206114558582860161140a565b9150509250929050565b6000604082019050611474600083018561131a565b611481602083018461131a565b9392505050565b600073ffffffffffffffffffffffffffffffffffffffff82169050919050565b60006114b382611488565b9050919050565b6114c3816114a8565b82525050565b60006020820190506114de60008301846114ba565b92915050565b600080604083850312156114fb576114fa611389565b5b6000611509858286016113a5565b925050602061151a858286016113a5565b9150509250929050565b6000819050919050565b600061154961154461153f84611488565b611524565b611488565b9050919050565b600061155b8261152e565b9050919050565b600061156d82611550565b9050919050565b61157d81611562565b82525050565b60006020820190506115986000830184611574565b92915050565b6115a7816114a8565b81146115b257600080fd5b50565b6000813590506115c48161159e565b92915050565b6000602082840312156115e0576115df611389565b5b60006115ee848285016115b5565b91505092915050565b600082825260208201905092915050565b7f4d7573742073656e642045544800000000000000000000000000000000000000600082015250565b600061163e600d836115f7565b915061164982611608565b602082019050919050565b6000602082019050818103600083015261166d81611631565b9050919050565b7f4d7573742073656e6420746f6b656e7300000000000000000000000000000000600082015250565b60006116aa6010836115f7565b91506116b582611674565b602082019050919050565b600060208201905081810360008301526116d98161169d565b9050919050565b60006060820190506116f560008301866114ba565b61170260208301856114ba565b61170f604083018461131a565b949350505050565b600081519050611726816113f3565b92915050565b60006020828403121561174257611741611389565b5b600061175084828501611717565b91505092915050565b7f546f6b656e207472616e73666572206661696c65640000000000000000000000600082015250565b600061178f6015836115f7565b915061179a82611759565b602082019050919050565b600060208201905081810360008301526117be81611782565b9050919050565b7f4e487b7100000000000000000000000000000000000000000000000000000000600052601160045260246000fd5b60006117ff82611310565b915061180a83611310565b9250828201905080821115611822576118216117c5565b5b92915050565b600061183382611310565b915061183e83611310565b925082820261184c81611310565b91508282048414831517611863576118626117c5565b5b5092915050565b7f4e487b7100000000000000000000000000000000000000000000000000000000600052601260045260246000fd5b60006118a482611310565b91506118af83611310565b9250826118bf576118be61186a565b5b828204905092915050565b60006118d582611310565b91506118e083611310565b92508282039050818111156118f8576118f76117c5565b5b92915050565b7f46656520746f6f20686967680000000000000000000000000000000000000000600082015250565b6000611934600c836115f7565b915061193f826118fe565b602082019050919050565b6000602082019050818103600083015261196381611927565b9050919050565b7f496e73756666696369656e7420455448206c6971756964697479000000000000600082015250565b60006119a0601a836115f7565b91506119ab8261196a565b602082019050919050565b600060208201905081810360008301526119cf81611993565b9050919050565b7f496e73756666696369656e7420746f6b656e206c697175696469747900000000600082015250565b6000611a0c601c836115f7565b9150611a17826119d6565b602082019050919050565b60006020820190508181036000830152611a3b816119ff565b9050919050565b6000604082019050611a5760008301856114ba565b611a64602083018461131a565b9392505050565b611a74816113e7565b82525050565b6000606082019050611a8f600083018661131a565b611a9c602083018561131a565b611aa96040830184611a6b565b949350505050565b7f4d757374207370656369667920746f6b656e20616d6f756e7400000000000000600082015250565b6000611ae76019836115f7565b9150611af282611ab1565b602082019050919050565b60006020820190508181036000830152611b1681611ada565b9050919050565b7f52617465206d75737420626520706f7369746976650000000000000000000000600082015250565b6000611b536015836115f7565b9150611b5e82611b1d565b602082019050919050565b60006020820190508181036000830152611b8281611b46565b9050919050565b600081519050611b988161138e565b92915050565b600060208284031215611bb457611bb3611389565b5b6000611bc284828501611b89565b9150509291505056fea264697066735822122013e8ae18743a8d95b6c39f7bc39483fb727da5cf7e5c520c33028ba7f08e3b2464736f6c634300081c0033",
  "linkReferences": {},
  "deployedLinkReferences": {}
}